{
  "transactions": [
    {
      "hash": "0xf13a85a5e8947766f70655befe1faddc95ec1531156e2463f2332fb36c494feb",
      "transactionType": "CREATE",
      "contractName": null,
      "contractAddress": "0xd32b0ccad5decfc9c7fafba89d918153202dbf4a",
      "function": null,
      "arguments": null,
      "transaction": {
        "from": "0x0a52c4cd73157bcfdd4a7c570106016db2749b05",
        "gas": "0x50edc",
        "value": "0x0",
        "input": "0x6080604052348015600e575f5ffd5b503380603357604051631e4fbdf760e01b81525f600482015260240160405180910390fd5b603a81603f565b50608e565b5f80546001600160a01b038381166001600160a01b0319831681178455604051919092169283917f8be0079c531659141344cd1fd0a4f28419497f9722a3daafe3b4186f6b6457e09190a35050565b61031f8061009b5f395ff3fe608060405234801561000f575f5ffd5b506004361061005f575f3560e01c8062e4768b14610063578063204120bc1461007857806341976e09146100aa578063715018a6146100d25780638da5cb5b146100da578063f2fde38b146100f4575b5f5ffd5b6100766100713660046102a1565b610107565b005b6100976100863660046102c9565b60016020525f908152604090205481565b6040519081526020015b60405180910390f35b6100976100b83660046102c9565b6001600160a01b03165f9081526001602052604090205490565b6100766101bb565b5f546040516001600160a01b0390911681526020016100a1565b6100766101023660046102c9565b6101ce565b61010f61020b565b5f81116101635760405162461bcd60e51b815260206004820152601f60248201527f5072696365206d7573742062652067726561746572207468616e207a65726f0060448201526064015b60405180910390fd5b6001600160a01b0382165f8181526001602052604090819020839055517f0d86730737b142fc160892fa8a0f2db687a92a0e294d1ad70624cf5acef03b84906101af9084815260200190565b60405180910390a25050565b6101c361020b565b6101cc5f610237565b565b6101d661020b565b6001600160a01b0381166101ff57604051631e4fbdf760e01b81525f600482015260240161015a565b61020881610237565b50565b5f546001600160a01b031633146101cc5760405163118cdaa760e01b815233600482015260240161015a565b5f80546001600160a01b038381166001600160a01b0319831681178455604051919092169283917f8be0079c531659141344cd1fd0a4f28419497f9722a3daafe3b4186f6b6457e09190a35050565b80356001600160a01b038116811461029c575f5ffd5b919050565b5f5f604083850312156102b2575f5ffd5b6102bb83610286565b946020939093013593505050565b5f602082840312156102d9575f5ffd5b6102e282610286565b939250505056fea2646970667358221220d31d27e5bb3ea3456263f4ac3f87b9c6a026d9fa0c39dda13b5fc7d4f7e87a8e64736f6c634300081c0033",
        "nonce": "0xae2",
        "chainId": "0x66eee"
      },
      "additionalContracts": [],
      "isFixedGasLimit": false
    },
    {
      "hash": "0x4a81c7e64f5199b730c53bf565c7694ace02793ef1ed1dead7cb0e6819657296",
      "transactionType": "CREATE",
      "contractName": "MinimalistDEX",
      "contractAddress": "0x62ea3e856a006e09dff6dd70850f9c73f74dec79",
      "function": null,
      "arguments": [
        "0xd32b0ccAD5deCfC9C7fAFbA89D918153202dbF4a"
      ],
      "transaction": {
        "from": "0x0a52c4cd73157bcfdd4a7c570106016db2749b05",
        "gas": "0x23834b",
        "value": "0x0",
        "input": "0x608060405234801561000f575f5ffd5b50604051611f3f380380611f3f83398101604081905261002e916100d1565b338061005357604051631e4fbdf760e01b81525f600482015260240160405180910390fd5b61005c81610082565b50600280546001600160a01b0319166001600160a01b03929092169190911790556100fe565b5f80546001600160a01b038381166001600160a01b0319831681178455604051919092169283917f8be0079c531659141344cd1fd0a4f28419497f9722a3daafe3b4186f6b6457e09190a35050565b5f602082840312156100e1575f5ffd5b81516001600160a01b03811681146100f7575f5ffd5b9392505050565b611e348061010b5f395ff3fe608060405234801561000f575f5ffd5b506004361061009b575f3560e01c8063cf6c62ea11610063578063cf6c62ea14610164578063d752fab214610177578063df791e501461018a578063f2fde38b1461019d578063f4f31ede146101b0575f5ffd5b80631aed62221461009f5780632630c12f146100fe5780632b7a71dd14610129578063715018a61461014a5780638da5cb5b14610154575b5f5ffd5b6100d56100ad366004610fe8565b600160208190525f91825260409091208054918101546002909101546001600160a01b031683565b6040805193845260208401929092526001600160a01b0316908201526060015b60405180910390f35b600254610111906001600160a01b031681565b6040516001600160a01b0390911681526020016100f5565b61013c61013736600461101a565b6101c3565b6040519081526020016100f5565b61015261026a565b005b5f546001600160a01b0316610111565b61015261017236600461104b565b61027d565b61015261018536600461108a565b6105ea565b61013c61019836600461108a565b610a21565b6101526101ab3660046110c4565b610ee1565b6100d56101be36600461101a565b610f1e565b5f816001600160a01b0316836001600160a01b031610610221576040516bffffffffffffffffffffffff19606084811b8216602084015285901b16603482015260480160405160208183030381529060405280519060200120610261565b6040516bffffffffffffffffffffffff19606085811b8216602084015284901b166034820152604801604051602081830303815290604052805190602001205b90505b92915050565b610272610f60565b61027b5f610f8c565b565b826001600160a01b0316846001600160a01b0316036102e35760405162461bcd60e51b815260206004820152601860248201527f546f6b656e73206d75737420626520646966666572656e74000000000000000060448201526064015b60405180910390fd5b5f821180156102f157505f81115b61033d5760405162461bcd60e51b815260206004820152601860248201527f496e76616c6964206c697175696469747920616d6f756e74000000000000000060448201526064016102da565b6040516323b872dd60e01b8152336004820152306024820152604481018390526001600160a01b038516906323b872dd906064016020604051808303815f875af115801561038d573d5f5f3e3d5ffd5b505050506040513d601f19601f820116820180604052508101906103b191906110dd565b506040516323b872dd60e01b8152336004820152306024820152604481018290526001600160a01b038416906323b872dd906064016020604051808303815f875af1158015610402573d5f5f3e3d5ffd5b505050506040513d601f19601f8201168201806040525081019061042691906110dd565b505f61043285856101c3565b5f8181526001602052604090206002810154919250906001600160a01b031661049e5760405161046190610fdb565b604051809103905ff08015801561047a573d5f5f3e3d5ffd5b506002820180546001600160a01b0319166001600160a01b03929092169190911790555b5f6104a98486611117565b60028301546040516340c10f1960e01b8152336004820152602481018390529192506001600160a01b0316906340c10f19906044015f604051808303815f87803b1580156104f5575f5ffd5b505af1158015610507573d5f5f3e3d5ffd5b5050505084825f015f82825461051d9190611117565b9250508190555083826001015f8282546105379190611117565b9091555050335f9081526003830160205260408120805487929061055c908490611117565b9091555050335f90815260048301602052604081208054869290610581908490611117565b9091555050604080516001600160a01b03808a16825288166020820152908101869052606081018590526080810182905233907f43c967b388d3a4ccad3f7ab80167852e322e5a3fde9893f530252281b2ae8b709060a00160405180910390a250505050505050565b5f811180156105fa575060648111155b6106385760405162461bcd60e51b815260206004820152600f60248201526e125b9d985b1a59081c195c98d95b9d608a1b60448201526064016102da565b5f61064384846101c3565b5f8181526001602052604090206002810154919250906001600160a01b03166106ae5760405162461bcd60e51b815260206004820152601d60248201527f4c697175696469747920706f6f6c20646f6573206e6f7420657869737400000060448201526064016102da565b335f908152600382016020526040902054158015906106dc5750335f90815260048201602052604090205415155b6107215760405162461bcd60e51b81526020600482015260166024820152754e6f206c697175696469747920746f2072656d6f766560501b60448201526064016102da565b335f90815260038201602052604081205460649061074090869061112a565b61074a9190611141565b335f9081526004840160205260408120549192509060649061076d90879061112a565b6107779190611141565b60028401546040516370a0823160e01b81523360048201529192505f9160649188916001600160a01b03909116906370a0823190602401602060405180830381865afa1580156107c9573d5f5f3e3d5ffd5b505050506040513d601f19601f820116820180604052508101906107ed9190611160565b6107f7919061112a565b6108019190611141565b6002850154604051632770a7eb60e21b8152336004820152602481018390529192506001600160a01b031690639dc29fac906044015f604051808303815f87803b15801561084d575f5ffd5b505af115801561085f573d5f5f3e3d5ffd5b5050505082845f015f8282546108759190611177565b9250508190555081846001015f82825461088f9190611177565b9091555050335f908152600385016020526040812080548592906108b4908490611177565b9091555050335f908152600485016020526040812080548492906108d9908490611177565b909155505060405163a9059cbb60e01b8152336004820152602481018490526001600160a01b0389169063a9059cbb906044016020604051808303815f875af1158015610928573d5f5f3e3d5ffd5b505050506040513d601f19601f8201168201806040525081019061094c91906110dd565b5060405163a9059cbb60e01b8152336004820152602481018390526001600160a01b0388169063a9059cbb906044016020604051808303815f875af1158015610997573d5f5f3e3d5ffd5b505050506040513d601f19601f820116820180604052508101906109bb91906110dd565b50604080516001600160a01b038a8116825289166020820152908101849052606081018390526080810182905233907fd765e08eef31c0983ecca03ecd166297ac485ecd5dd69e291c848f0a020333c19060a00160405180910390a25050505050505050565b5f826001600160a01b0316846001600160a01b031603610a775760405162461bcd60e51b815260206004820152601160248201527024b73b30b634b21039bbb0b8103830b4b960791b60448201526064016102da565b5f8211610abc5760405162461bcd60e51b8152602060048201526013602482015272125b9d985b1a59081cddd85c08185b5bdd5b9d606a1b60448201526064016102da565b6002546040516341976e0960e01b81526001600160a01b0386811660048301525f9216906341976e0990602401602060405180830381865afa158015610b04573d5f5f3e3d5ffd5b505050506040513d601f19601f82011682018060405250810190610b289190611160565b6002546040516341976e0960e01b81526001600160a01b0387811660048301529293505f92909116906341976e0990602401602060405180830381865afa158015610b75573d5f5f3e3d5ffd5b505050506040513d601f19601f82011682018060405250810190610b999190611160565b90505f82118015610ba957505f81115b610bea5760405162461bcd60e51b8152602060048201526012602482015271496e76616c6964207061697220707269636560701b60448201526064016102da565b5f866001600160a01b031663313ce5676040518163ffffffff1660e01b8152600401602060405180830381865afa158015610c27573d5f5f3e3d5ffd5b505050506040513d601f19601f82011682018060405250810190610c4b919061118a565b90505f866001600160a01b031663313ce5676040518163ffffffff1660e01b8152600401602060405180830381865afa158015610c8a573d5f5f3e3d5ffd5b505050506040513d601f19601f82011682018060405250810190610cae919061118a565b9050610cbb82600a61128d565b610cc5908461112a565b610cd082600a61128d565b610cda868961112a565b610ce4919061112a565b610cee9190611141565b6040516370a0823160e01b815230600482015290955085906001600160a01b038916906370a0823190602401602060405180830381865afa158015610d35573d5f5f3e3d5ffd5b505050506040513d601f19601f82011682018060405250810190610d599190611160565b1015610d9e5760405162461bcd60e51b81526020600482015260146024820152734e6f7420656e6f756768206c697175696469747960601b60448201526064016102da565b6040516323b872dd60e01b8152336004820152306024820152604481018790526001600160a01b038916906323b872dd906064016020604051808303815f875af1158015610dee573d5f5f3e3d5ffd5b505050506040513d601f19601f82011682018060405250810190610e1291906110dd565b5060405163a9059cbb60e01b8152336004820152602481018690526001600160a01b0388169063a9059cbb906044016020604051808303815f875af1158015610e5d573d5f5f3e3d5ffd5b505050506040513d601f19601f82011682018060405250810190610e8191906110dd565b50604080516001600160a01b038a81168252891660208201529081018790526060810186905233907fad56699d0f375866eb895ed27203058a36a713382aaded78eb6b67da266d43329060800160405180910390a2505050509392505050565b610ee9610f60565b6001600160a01b038116610f1257604051631e4fbdf760e01b81525f60048201526024016102da565b610f1b81610f8c565b50565b5f5f5f5f610f2c86866101c3565b5f90815260016020819052604090912080549181015460029091015491955093506001600160a01b03169150509250925092565b5f546001600160a01b0316331461027b5760405163118cdaa760e01b81523360048201526024016102da565b5f80546001600160a01b038381166001600160a01b0319831681178455604051919092169283917f8be0079c531659141344cd1fd0a4f28419497f9722a3daafe3b4186f6b6457e09190a35050565b610b638061129c83390190565b5f60208284031215610ff8575f5ffd5b5035919050565b80356001600160a01b0381168114611015575f5ffd5b919050565b5f5f6040838503121561102b575f5ffd5b61103483610fff565b915061104260208401610fff565b90509250929050565b5f5f5f5f6080858703121561105e575f5ffd5b61106785610fff565b935061107560208601610fff565b93969395505050506040820135916060013590565b5f5f5f6060848603121561109c575f5ffd5b6110a584610fff565b92506110b360208501610fff565b929592945050506040919091013590565b5f602082840312156110d4575f5ffd5b61026182610fff565b5f602082840312156110ed575f5ffd5b815180151581146110fc575f5ffd5b9392505050565b634e487b7160e01b5f52601160045260245ffd5b8082018082111561026457610264611103565b808202811582820484141761026457610264611103565b5f8261115b57634e487b7160e01b5f52601260045260245ffd5b500490565b5f60208284031215611170575f5ffd5b5051919050565b8181038181111561026457610264611103565b5f6020828403121561119a575f5ffd5b815160ff811681146110fc575f5ffd5b6001815b60018411156111e5578085048111156111c9576111c9611103565b60018416156111d757908102905b60019390931c9280026111ae565b935093915050565b5f826111fb57506001610264565b8161120757505f610264565b816001811461121d576002811461122757611243565b6001915050610264565b60ff84111561123857611238611103565b50506001821b610264565b5060208310610133831016604e8410600b8410161715611266575081810a610264565b6112725f1984846111aa565b805f190482111561128557611285611103565b029392505050565b5f61026160ff8416836111ed56fe608060405234801561000f575f5ffd5b50336040518060400160405280601381526020017f4d696e696d616c697374204c5020546f6b656e000000000000000000000000008152506040518060400160405280600381526020016204d4c560ec1b815250816003908161007291906101a7565b50600461007f82826101a7565b5050506001600160a01b0381166100af57604051631e4fbdf760e01b81525f600482015260240160405180910390fd5b6100b8816100be565b50610261565b600580546001600160a01b038381166001600160a01b0319831681179093556040519116919082907f8be0079c531659141344cd1fd0a4f28419497f9722a3daafe3b4186f6b6457e0905f90a35050565b634e487b7160e01b5f52604160045260245ffd5b600181811c9082168061013757607f821691505b60208210810361015557634e487b7160e01b5f52602260045260245ffd5b50919050565b601f8211156101a257805f5260205f20601f840160051c810160208510156101805750805b601f840160051c820191505b8181101561019f575f815560010161018c565b50505b505050565b81516001600160401b038111156101c0576101c061010f565b6101d4816101ce8454610123565b8461015b565b6020601f821160018114610206575f83156101ef5750848201515b5f19600385901b1c1916600184901b17845561019f565b5f84815260208120601f198516915b828110156102355787850151825560209485019460019092019101610215565b508482101561025257868401515f19600387901b60f8161c191681555b50505050600190811b01905550565b6108f58061026e5f395ff3fe608060405234801561000f575f5ffd5b50600436106100e5575f3560e01c8063715018a6116100885780639dc29fac116100635780639dc29fac146101c6578063a9059cbb146101d9578063dd62ed3e146101ec578063f2fde38b14610224575f5ffd5b8063715018a61461019b5780638da5cb5b146101a357806395d89b41146101be575f5ffd5b806323b872dd116100c357806323b872dd1461013c578063313ce5671461014f57806340c10f191461015e57806370a0823114610173575f5ffd5b806306fdde03146100e9578063095ea7b31461010757806318160ddd1461012a575b5f5ffd5b6100f1610237565b6040516100fe9190610765565b60405180910390f35b61011a6101153660046107b5565b6102c7565b60405190151581526020016100fe565b6002545b6040519081526020016100fe565b61011a61014a3660046107dd565b6102e0565b604051601281526020016100fe565b61017161016c3660046107b5565b610303565b005b61012e610181366004610817565b6001600160a01b03165f9081526020819052604090205490565b610171610319565b6005546040516001600160a01b0390911681526020016100fe565b6100f161032c565b6101716101d43660046107b5565b61033b565b61011a6101e73660046107b5565b61034d565b61012e6101fa366004610837565b6001600160a01b039182165f90815260016020908152604080832093909416825291909152205490565b610171610232366004610817565b61035a565b60606003805461024690610868565b80601f016020809104026020016040519081016040528092919081815260200182805461027290610868565b80156102bd5780601f10610294576101008083540402835291602001916102bd565b820191905f5260205f20905b8154815290600101906020018083116102a057829003601f168201915b5050505050905090565b5f336102d481858561039c565b60019150505b92915050565b5f336102ed8582856103ae565b6102f885858561042a565b506001949350505050565b61030b610487565b61031582826104b4565b5050565b610321610487565b61032a5f6104e8565b565b60606004805461024690610868565b610343610487565b6103158282610539565b5f336102d481858561042a565b610362610487565b6001600160a01b03811661039057604051631e4fbdf760e01b81525f60048201526024015b60405180910390fd5b610399816104e8565b50565b6103a9838383600161056d565b505050565b6001600160a01b038381165f908152600160209081526040808320938616835292905220545f19811015610424578181101561041657604051637dc7a0d960e11b81526001600160a01b03841660048201526024810182905260448101839052606401610387565b61042484848484035f61056d565b50505050565b6001600160a01b03831661045357604051634b637e8f60e11b81525f6004820152602401610387565b6001600160a01b03821661047c5760405163ec442f0560e01b81525f6004820152602401610387565b6103a983838361063f565b6005546001600160a01b0316331461032a5760405163118cdaa760e01b8152336004820152602401610387565b6001600160a01b0382166104dd5760405163ec442f0560e01b81525f6004820152602401610387565b6103155f838361063f565b600580546001600160a01b038381166001600160a01b0319831681179093556040519116919082907f8be0079c531659141344cd1fd0a4f28419497f9722a3daafe3b4186f6b6457e0905f90a35050565b6001600160a01b03821661056257604051634b637e8f60e11b81525f6004820152602401610387565b610315825f8361063f565b6001600160a01b0384166105965760405163e602df0560e01b81525f6004820152602401610387565b6001600160a01b0383166105bf57604051634a1406b160e11b81525f6004820152602401610387565b6001600160a01b038085165f908152600160209081526040808320938716835292905220829055801561042457826001600160a01b0316846001600160a01b03167f8c5be1e5ebec7d5bd14f71427d1e84f3dd0314c0f7b2291e5b200ac8c7c3b9258460405161063191815260200190565b60405180910390a350505050565b6001600160a01b038316610669578060025f82825461065e91906108a0565b909155506106d99050565b6001600160a01b0383165f90815260208190526040902054818110156106bb5760405163391434e360e21b81526001600160a01b03851660048201526024810182905260448101839052606401610387565b6001600160a01b0384165f9081526020819052604090209082900390555b6001600160a01b0382166106f557600280548290039055610713565b6001600160a01b0382165f9081526020819052604090208054820190555b816001600160a01b0316836001600160a01b03167fddf252ad1be2c89b69c2b068fc378daa952ba7f163c4a11628f55a4df523b3ef8360405161075891815260200190565b60405180910390a3505050565b602081525f82518060208401528060208501604085015e5f604082850101526040601f19601f83011684010191505092915050565b80356001600160a01b03811681146107b0575f5ffd5b919050565b5f5f604083850312156107c6575f5ffd5b6107cf8361079a565b946020939093013593505050565b5f5f5f606084860312156107ef575f5ffd5b6107f88461079a565b92506108066020850161079a565b929592945050506040919091013590565b5f60208284031215610827575f5ffd5b6108308261079a565b9392505050565b5f5f60408385031215610848575f5ffd5b6108518361079a565b915061085f6020840161079a565b90509250929050565b600181811c9082168061087c57607f821691505b60208210810361089a57634e487b7160e01b5f52602260045260245ffd5b50919050565b808201808211156102da57634e487b7160e01b5f52601160045260245ffdfea2646970667358221220d5cd3fc7dfa6f07483fb773bbaee00a053715ff16df402b9cec62efdc3c9d45464736f6c634300081c0033a2646970667358221220814f034dfc4e1cdd40f85bc5874179532fedf20965d3ee81cb9103619f1c7e2964736f6c634300081c0033000000000000000000000000d32b0ccad5decfc9c7fafba89d918153202dbf4a",
        "nonce": "0xae3",
        "chainId": "0x66eee"
      },
      "additionalContracts": [],
      "isFixedGasLimit": false
    },
    {
      "hash": "0xdd2989c8934a94170308c25b8f69250f4be07e283e664db516786d2ee655b148",
      "transactionType": "CREATE",
      "contractName": null,
      "contractAddress": "0x612de751150638db0e8cc8ef53cd94005742fac2",
      "function": null,
      "arguments": null,
      "transaction": {
        "from": "0x0a52c4cd73157bcfdd4a7c570106016db2749b05",
        "gas": "0xb13d1",
        "value": "0x0",
        "input": "0x60a060405234801561000f575f5ffd5b50604051610b6a380380610b6a83398101604081905261002e91610266565b8383600361003c838261036d565b506004610049828261036d565b50505060ff821660805261005d3382610066565b5050505061044c565b6001600160a01b0382166100945760405163ec442f0560e01b81525f60048201526024015b60405180910390fd5b61009f5f83836100a3565b5050565b6001600160a01b0383166100cd578060025f8282546100c29190610427565b9091555061013d9050565b6001600160a01b0383165f908152602081905260409020548181101561011f5760405163391434e360e21b81526001600160a01b0385166004820152602481018290526044810183905260640161008b565b6001600160a01b0384165f9081526020819052604090209082900390555b6001600160a01b03821661015957600280548290039055610177565b6001600160a01b0382165f9081526020819052604090208054820190555b816001600160a01b0316836001600160a01b03167fddf252ad1be2c89b69c2b068fc378daa952ba7f163c4a11628f55a4df523b3ef836040516101bc91815260200190565b60405180910390a3505050565b634e487b7160e01b5f52604160045260245ffd5b5f82601f8301126101ec575f5ffd5b81516001600160401b03811115610205576102056101c9565b604051601f8201601f19908116603f011681016001600160401b0381118282101715610233576102336101c9565b60405281815283820160200185101561024a575f5ffd5b8160208501602083015e5f918101602001919091529392505050565b5f5f5f5f60808587031215610279575f5ffd5b84516001600160401b0381111561028e575f5ffd5b61029a878288016101dd565b602087015190955090506001600160401b038111156102b7575f5ffd5b6102c3878288016101dd565b935050604085015160ff811681146102d9575f5ffd5b6060959095015193969295505050565b600181811c908216806102fd57607f821691505b60208210810361031b57634e487b7160e01b5f52602260045260245ffd5b50919050565b601f82111561036857805f5260205f20601f840160051c810160208510156103465750805b601f840160051c820191505b81811015610365575f8155600101610352565b50505b505050565b81516001600160401b03811115610386576103866101c9565b61039a8161039484546102e9565b84610321565b6020601f8211600181146103cc575f83156103b55750848201515b5f19600385901b1c1916600184901b178455610365565b5f84815260208120601f198516915b828110156103fb57878501518255602094850194600190920191016103db565b508482101561041857868401515f19600387901b60f8161c191681555b50505050600190811b01905550565b8082018082111561044657634e487b7160e01b5f52601160045260245ffd5b92915050565b6080516107066104645f395f61010101526107065ff3fe608060405234801561000f575f5ffd5b5060043610610090575f3560e01c8063313ce56711610063578063313ce567146100fa57806370a082311461012b57806395d89b4114610153578063a9059cbb1461015b578063dd62ed3e1461016e575f5ffd5b806306fdde0314610094578063095ea7b3146100b257806318160ddd146100d557806323b872dd146100e7575b5f5ffd5b61009c6101a6565b6040516100a99190610576565b60405180910390f35b6100c56100c03660046105c6565b610236565b60405190151581526020016100a9565b6002545b6040519081526020016100a9565b6100c56100f53660046105ee565b61024f565b60405160ff7f00000000000000000000000000000000000000000000000000000000000000001681526020016100a9565b6100d9610139366004610628565b6001600160a01b03165f9081526020819052604090205490565b61009c610272565b6100c56101693660046105c6565b610281565b6100d961017c366004610648565b6001600160a01b039182165f90815260016020908152604080832093909416825291909152205490565b6060600380546101b590610679565b80601f01602080910402602001604051908101604052809291908181526020018280546101e190610679565b801561022c5780601f106102035761010080835404028352916020019161022c565b820191905f5260205f20905b81548152906001019060200180831161020f57829003601f168201915b5050505050905090565b5f3361024381858561028e565b60019150505b92915050565b5f3361025c8582856102a0565b610267858585610321565b506001949350505050565b6060600480546101b590610679565b5f33610243818585610321565b61029b838383600161037e565b505050565b6001600160a01b038381165f908152600160209081526040808320938616835292905220545f1981101561031b578181101561030d57604051637dc7a0d960e11b81526001600160a01b038416600482015260248101829052604481018390526064015b60405180910390fd5b61031b84848484035f61037e565b50505050565b6001600160a01b03831661034a57604051634b637e8f60e11b81525f6004820152602401610304565b6001600160a01b0382166103735760405163ec442f0560e01b81525f6004820152602401610304565b61029b838383610450565b6001600160a01b0384166103a75760405163e602df0560e01b81525f6004820152602401610304565b6001600160a01b0383166103d057604051634a1406b160e11b81525f6004820152602401610304565b6001600160a01b038085165f908152600160209081526040808320938716835292905220829055801561031b57826001600160a01b0316846001600160a01b03167f8c5be1e5ebec7d5bd14f71427d1e84f3dd0314c0f7b2291e5b200ac8c7c3b9258460405161044291815260200190565b60405180910390a350505050565b6001600160a01b03831661047a578060025f82825461046f91906106b1565b909155506104ea9050565b6001600160a01b0383165f90815260208190526040902054818110156104cc5760405163391434e360e21b81526001600160a01b03851660048201526024810182905260448101839052606401610304565b6001600160a01b0384165f9081526020819052604090209082900390555b6001600160a01b03821661050657600280548290039055610524565b6001600160a01b0382165f9081526020819052604090208054820190555b816001600160a01b0316836001600160a01b03167fddf252ad1be2c89b69c2b068fc378daa952ba7f163c4a11628f55a4df523b3ef8360405161056991815260200190565b60405180910390a3505050565b602081525f82518060208401528060208501604085015e5f604082850101526040601f19601f83011684010191505092915050565b80356001600160a01b03811681146105c1575f5ffd5b919050565b5f5f604083850312156105d7575f5ffd5b6105e0836105ab565b946020939093013593505050565b5f5f5f60608486031215610600575f5ffd5b610609846105ab565b9250610617602085016105ab565b929592945050506040919091013590565b5f60208284031215610638575f5ffd5b610641826105ab565b9392505050565b5f5f60408385031215610659575f5ffd5b610662836105ab565b9150610670602084016105ab565b90509250929050565b600181811c9082168061068d57607f821691505b6020821081036106ab57634e487b7160e01b5f52602260045260245ffd5b50919050565b8082018082111561024957634e487b7160e01b5f52601160045260245ffdfea26469706673582212202a67e266f969732ec616a23fa7e79fba88c7dd24069d8d19b8af9cdc77d0344264736f6c634300081c0033000000000000000000000000000000000000000000000000000000000000008000000000000000000000000000000000000000000000000000000000000000c0000000000000000000000000000000000000000000000000000000000000001200000000000000000000000000000000000000000000d3c21bcecceda10000000000000000000000000000000000000000000000000000000000000000000006546f6b656e4100000000000000000000000000000000000000000000000000000000000000000000000000000000000000000000000000000000000000000003544b410000000000000000000000000000000000000000000000000000000000",
        "nonce": "0xae4",
        "chainId": "0x66eee"
      },
      "additionalContracts": [],
      "isFixedGasLimit": false
    },
    {
      "hash": "0x43ece7d3e5f4774cb0654d917b88bbfc1ae75329c653b53b258e5510e529dbf7",
      "transactionType": "CREATE",
      "contractName": null,
      "contractAddress": "0x31b9dbb5a4d34c9e730d676bf254f0e1b5eb03fa",
      "function": null,
      "arguments": null,
      "transaction": {
        "from": "0x0a52c4cd73157bcfdd4a7c570106016db2749b05",
        "gas": "0xb13a2",
        "value": "0x0",
        "input": "0x60a060405234801561000f575f5ffd5b50604051610b6a380380610b6a83398101604081905261002e91610266565b8383600361003c838261036d565b506004610049828261036d565b50505060ff821660805261005d3382610066565b5050505061044c565b6001600160a01b0382166100945760405163ec442f0560e01b81525f60048201526024015b60405180910390fd5b61009f5f83836100a3565b5050565b6001600160a01b0383166100cd578060025f8282546100c29190610427565b9091555061013d9050565b6001600160a01b0383165f908152602081905260409020548181101561011f5760405163391434e360e21b81526001600160a01b0385166004820152602481018290526044810183905260640161008b565b6001600160a01b0384165f9081526020819052604090209082900390555b6001600160a01b03821661015957600280548290039055610177565b6001600160a01b0382165f9081526020819052604090208054820190555b816001600160a01b0316836001600160a01b03167fddf252ad1be2c89b69c2b068fc378daa952ba7f163c4a11628f55a4df523b3ef836040516101bc91815260200190565b60405180910390a3505050565b634e487b7160e01b5f52604160045260245ffd5b5f82601f8301126101ec575f5ffd5b81516001600160401b03811115610205576102056101c9565b604051601f8201601f19908116603f011681016001600160401b0381118282101715610233576102336101c9565b60405281815283820160200185101561024a575f5ffd5b8160208501602083015e5f918101602001919091529392505050565b5f5f5f5f60808587031215610279575f5ffd5b84516001600160401b0381111561028e575f5ffd5b61029a878288016101dd565b602087015190955090506001600160401b038111156102b7575f5ffd5b6102c3878288016101dd565b935050604085015160ff811681146102d9575f5ffd5b6060959095015193969295505050565b600181811c908216806102fd57607f821691505b60208210810361031b57634e487b7160e01b5f52602260045260245ffd5b50919050565b601f82111561036857805f5260205f20601f840160051c810160208510156103465750805b601f840160051c820191505b81811015610365575f8155600101610352565b50505b505050565b81516001600160401b03811115610386576103866101c9565b61039a8161039484546102e9565b84610321565b6020601f8211600181146103cc575f83156103b55750848201515b5f19600385901b1c1916600184901b178455610365565b5f84815260208120601f198516915b828110156103fb57878501518255602094850194600190920191016103db565b508482101561041857868401515f19600387901b60f8161c191681555b50505050600190811b01905550565b8082018082111561044657634e487b7160e01b5f52601160045260245ffd5b92915050565b6080516107066104645f395f61010101526107065ff3fe608060405234801561000f575f5ffd5b5060043610610090575f3560e01c8063313ce56711610063578063313ce567146100fa57806370a082311461012b57806395d89b4114610153578063a9059cbb1461015b578063dd62ed3e1461016e575f5ffd5b806306fdde0314610094578063095ea7b3146100b257806318160ddd146100d557806323b872dd146100e7575b5f5ffd5b61009c6101a6565b6040516100a99190610576565b60405180910390f35b6100c56100c03660046105c6565b610236565b60405190151581526020016100a9565b6002545b6040519081526020016100a9565b6100c56100f53660046105ee565b61024f565b60405160ff7f00000000000000000000000000000000000000000000000000000000000000001681526020016100a9565b6100d9610139366004610628565b6001600160a01b03165f9081526020819052604090205490565b61009c610272565b6100c56101693660046105c6565b610281565b6100d961017c366004610648565b6001600160a01b039182165f90815260016020908152604080832093909416825291909152205490565b6060600380546101b590610679565b80601f01602080910402602001604051908101604052809291908181526020018280546101e190610679565b801561022c5780601f106102035761010080835404028352916020019161022c565b820191905f5260205f20905b81548152906001019060200180831161020f57829003601f168201915b5050505050905090565b5f3361024381858561028e565b60019150505b92915050565b5f3361025c8582856102a0565b610267858585610321565b506001949350505050565b6060600480546101b590610679565b5f33610243818585610321565b61029b838383600161037e565b505050565b6001600160a01b038381165f908152600160209081526040808320938616835292905220545f1981101561031b578181101561030d57604051637dc7a0d960e11b81526001600160a01b038416600482015260248101829052604481018390526064015b60405180910390fd5b61031b84848484035f61037e565b50505050565b6001600160a01b03831661034a57604051634b637e8f60e11b81525f6004820152602401610304565b6001600160a01b0382166103735760405163ec442f0560e01b81525f6004820152602401610304565b61029b838383610450565b6001600160a01b0384166103a75760405163e602df0560e01b81525f6004820152602401610304565b6001600160a01b0383166103d057604051634a1406b160e11b81525f6004820152602401610304565b6001600160a01b038085165f908152600160209081526040808320938716835292905220829055801561031b57826001600160a01b0316846001600160a01b03167f8c5be1e5ebec7d5bd14f71427d1e84f3dd0314c0f7b2291e5b200ac8c7c3b9258460405161044291815260200190565b60405180910390a350505050565b6001600160a01b03831661047a578060025f82825461046f91906106b1565b909155506104ea9050565b6001600160a01b0383165f90815260208190526040902054818110156104cc5760405163391434e360e21b81526001600160a01b03851660048201526024810182905260448101839052606401610304565b6001600160a01b0384165f9081526020819052604090209082900390555b6001600160a01b03821661050657600280548290039055610524565b6001600160a01b0382165f9081526020819052604090208054820190555b816001600160a01b0316836001600160a01b03167fddf252ad1be2c89b69c2b068fc378daa952ba7f163c4a11628f55a4df523b3ef8360405161056991815260200190565b60405180910390a3505050565b602081525f82518060208401528060208501604085015e5f604082850101526040601f19601f83011684010191505092915050565b80356001600160a01b03811681146105c1575f5ffd5b919050565b5f5f604083850312156105d7575f5ffd5b6105e0836105ab565b946020939093013593505050565b5f5f5f60608486031215610600575f5ffd5b610609846105ab565b9250610617602085016105ab565b929592945050506040919091013590565b5f60208284031215610638575f5ffd5b610641826105ab565b9392505050565b5f5f60408385031215610659575f5ffd5b610662836105ab565b9150610670602084016105ab565b90509250929050565b600181811c9082168061068d57607f821691505b6020821081036106ab57634e487b7160e01b5f52602260045260245ffd5b50919050565b8082018082111561024957634e487b7160e01b5f52601160045260245ffdfea26469706673582212202a67e266f969732ec616a23fa7e79fba88c7dd24069d8d19b8af9cdc77d0344264736f6c634300081c0033000000000000000000000000000000000000000000000000000000000000008000000000000000000000000000000000000000000000000000000000000000c00000000000000000000000000000000000000000000000000000000000000006000000000000000000000000000000000000000000000000000000e8d4a510000000000000000000000000000000000000000000000000000000000000000006546f6b656e4200000000000000000000000000000000000000000000000000000000000000000000000000000000000000000000000000000000000000000003544b420000000000000000000000000000000000000000000000000000000000",
        "nonce": "0xae5",
        "chainId": "0x66eee"
      },
      "additionalContracts": [],
      "isFixedGasLimit": false
    },
    {
      "hash": "0x41ec82dec0554b50cfb697dee2012169eedf6c3a43fbfde58d7c003c3da0d70a",
      "transactionType": "CREATE",
      "contractName": null,
      "contractAddress": "0x8e0d3ded296c324050eef42662c6a778a96dfe73",
      "function": null,
      "arguments": null,
      "transaction": {
        "from": "0x0a52c4cd73157bcfdd4a7c570106016db2749b05",
        "gas": "0xb13e1",
        "value": "0x0",
        "input": "0x60a060405234801561000f575f5ffd5b50604051610b6a380380610b6a83398101604081905261002e91610266565b8383600361003c838261036d565b506004610049828261036d565b50505060ff821660805261005d3382610066565b5050505061044c565b6001600160a01b0382166100945760405163ec442f0560e01b81525f60048201526024015b60405180910390fd5b61009f5f83836100a3565b5050565b6001600160a01b0383166100cd578060025f8282546100c29190610427565b9091555061013d9050565b6001600160a01b0383165f908152602081905260409020548181101561011f5760405163391434e360e21b81526001600160a01b0385166004820152602481018290526044810183905260640161008b565b6001600160a01b0384165f9081526020819052604090209082900390555b6001600160a01b03821661015957600280548290039055610177565b6001600160a01b0382165f9081526020819052604090208054820190555b816001600160a01b0316836001600160a01b03167fddf252ad1be2c89b69c2b068fc378daa952ba7f163c4a11628f55a4df523b3ef836040516101bc91815260200190565b60405180910390a3505050565b634e487b7160e01b5f52604160045260245ffd5b5f82601f8301126101ec575f5ffd5b81516001600160401b03811115610205576102056101c9565b604051601f8201601f19908116603f011681016001600160401b0381118282101715610233576102336101c9565b60405281815283820160200185101561024a575f5ffd5b8160208501602083015e5f918101602001919091529392505050565b5f5f5f5f60808587031215610279575f5ffd5b84516001600160401b0381111561028e575f5ffd5b61029a878288016101dd565b602087015190955090506001600160401b038111156102b7575f5ffd5b6102c3878288016101dd565b935050604085015160ff811681146102d9575f5ffd5b6060959095015193969295505050565b600181811c908216806102fd57607f821691505b60208210810361031b57634e487b7160e01b5f52602260045260245ffd5b50919050565b601f82111561036857805f5260205f20601f840160051c810160208510156103465750805b601f840160051c820191505b81811015610365575f8155600101610352565b50505b505050565b81516001600160401b03811115610386576103866101c9565b61039a8161039484546102e9565b84610321565b6020601f8211600181146103cc575f83156103b55750848201515b5f19600385901b1c1916600184901b178455610365565b5f84815260208120601f198516915b828110156103fb57878501518255602094850194600190920191016103db565b508482101561041857868401515f19600387901b60f8161c191681555b50505050600190811b01905550565b8082018082111561044657634e487b7160e01b5f52601160045260245ffd5b92915050565b6080516107066104645f395f61010101526107065ff3fe608060405234801561000f575f5ffd5b5060043610610090575f3560e01c8063313ce56711610063578063313ce567146100fa57806370a082311461012b57806395d89b4114610153578063a9059cbb1461015b578063dd62ed3e1461016e575f5ffd5b806306fdde0314610094578063095ea7b3146100b257806318160ddd146100d557806323b872dd146100e7575b5f5ffd5b61009c6101a6565b6040516100a99190610576565b60405180910390f35b6100c56100c03660046105c6565b610236565b60405190151581526020016100a9565b6002545b6040519081526020016100a9565b6100c56100f53660046105ee565b61024f565b60405160ff7f00000000000000000000000000000000000000000000000000000000000000001681526020016100a9565b6100d9610139366004610628565b6001600160a01b03165f9081526020819052604090205490565b61009c610272565b6100c56101693660046105c6565b610281565b6100d961017c366004610648565b6001600160a01b039182165f90815260016020908152604080832093909416825291909152205490565b6060600380546101b590610679565b80601f01602080910402602001604051908101604052809291908181526020018280546101e190610679565b801561022c5780601f106102035761010080835404028352916020019161022c565b820191905f5260205f20905b81548152906001019060200180831161020f57829003601f168201915b5050505050905090565b5f3361024381858561028e565b60019150505b92915050565b5f3361025c8582856102a0565b610267858585610321565b506001949350505050565b6060600480546101b590610679565b5f33610243818585610321565b61029b838383600161037e565b505050565b6001600160a01b038381165f908152600160209081526040808320938616835292905220545f1981101561031b578181101561030d57604051637dc7a0d960e11b81526001600160a01b038416600482015260248101829052604481018390526064015b60405180910390fd5b61031b84848484035f61037e565b50505050565b6001600160a01b03831661034a57604051634b637e8f60e11b81525f6004820152602401610304565b6001600160a01b0382166103735760405163ec442f0560e01b81525f6004820152602401610304565b61029b838383610450565b6001600160a01b0384166103a75760405163e602df0560e01b81525f6004820152602401610304565b6001600160a01b0383166103d057604051634a1406b160e11b81525f6004820152602401610304565b6001600160a01b038085165f908152600160209081526040808320938716835292905220829055801561031b57826001600160a01b0316846001600160a01b03167f8c5be1e5ebec7d5bd14f71427d1e84f3dd0314c0f7b2291e5b200ac8c7c3b9258460405161044291815260200190565b60405180910390a350505050565b6001600160a01b03831661047a578060025f82825461046f91906106b1565b909155506104ea9050565b6001600160a01b0383165f90815260208190526040902054818110156104cc5760405163391434e360e21b81526001600160a01b03851660048201526024810182905260448101839052606401610304565b6001600160a01b0384165f9081526020819052604090209082900390555b6001600160a01b03821661050657600280548290039055610524565b6001600160a01b0382165f9081526020819052604090208054820190555b816001600160a01b0316836001600160a01b03167fddf252ad1be2c89b69c2b068fc378daa952ba7f163c4a11628f55a4df523b3ef8360405161056991815260200190565b60405180910390a3505050565b602081525f82518060208401528060208501604085015e5f604082850101526040601f19601f83011684010191505092915050565b80356001600160a01b03811681146105c1575f5ffd5b919050565b5f5f604083850312156105d7575f5ffd5b6105e0836105ab565b946020939093013593505050565b5f5f5f60608486031215610600575f5ffd5b610609846105ab565b9250610617602085016105ab565b929592945050506040919091013590565b5f60208284031215610638575f5ffd5b610641826105ab565b9392505050565b5f5f60408385031215610659575f5ffd5b610662836105ab565b9150610670602084016105ab565b90509250929050565b600181811c9082168061068d57607f821691505b6020821081036106ab57634e487b7160e01b5f52602260045260245ffd5b50919050565b8082018082111561024957634e487b7160e01b5f52601160045260245ffdfea26469706673582212202a67e266f969732ec616a23fa7e79fba88c7dd24069d8d19b8af9cdc77d0344264736f6c634300081c0033000000000000000000000000000000000000000000000000000000000000008000000000000000000000000000000000000000000000000000000000000000c0000000000000000000000000000000000000000000000000000000000000001200000000000000000000000000000000000000000000d3c21bcecceda10000000000000000000000000000000000000000000000000000000000000000000007537461626c65410000000000000000000000000000000000000000000000000000000000000000000000000000000000000000000000000000000000000000035354410000000000000000000000000000000000000000000000000000000000",
        "nonce": "0xae6",
        "chainId": "0x66eee"
      },
      "additionalContracts": [],
      "isFixedGasLimit": false
    },
    {
      "hash": "0xc01440efa5ddd9be320f478612c0b36d20fc1b9a0aa4055a551891c7e39eb3b3",
      "transactionType": "CREATE",
      "contractName": null,
      "contractAddress": "0xe7a42ef87a5b717b46940120a0e84e2399acff90",
      "function": null,
      "arguments": null,
      "transaction": {
        "from": "0x0a52c4cd73157bcfdd4a7c570106016db2749b05",
        "gas": "0xb13b2",
        "value": "0x0",
        "input": "0x60a060405234801561000f575f5ffd5b50604051610b6a380380610b6a83398101604081905261002e91610266565b8383600361003c838261036d565b506004610049828261036d565b50505060ff821660805261005d3382610066565b5050505061044c565b6001600160a01b0382166100945760405163ec442f0560e01b81525f60048201526024015b60405180910390fd5b61009f5f83836100a3565b5050565b6001600160a01b0383166100cd578060025f8282546100c29190610427565b9091555061013d9050565b6001600160a01b0383165f908152602081905260409020548181101561011f5760405163391434e360e21b81526001600160a01b0385166004820152602481018290526044810183905260640161008b565b6001600160a01b0384165f9081526020819052604090209082900390555b6001600160a01b03821661015957600280548290039055610177565b6001600160a01b0382165f9081526020819052604090208054820190555b816001600160a01b0316836001600160a01b03167fddf252ad1be2c89b69c2b068fc378daa952ba7f163c4a11628f55a4df523b3ef836040516101bc91815260200190565b60405180910390a3505050565b634e487b7160e01b5f52604160045260245ffd5b5f82601f8301126101ec575f5ffd5b81516001600160401b03811115610205576102056101c9565b604051601f8201601f19908116603f011681016001600160401b0381118282101715610233576102336101c9565b60405281815283820160200185101561024a575f5ffd5b8160208501602083015e5f918101602001919091529392505050565b5f5f5f5f60808587031215610279575f5ffd5b84516001600160401b0381111561028e575f5ffd5b61029a878288016101dd565b602087015190955090506001600160401b038111156102b7575f5ffd5b6102c3878288016101dd565b935050604085015160ff811681146102d9575f5ffd5b6060959095015193969295505050565b600181811c908216806102fd57607f821691505b60208210810361031b57634e487b7160e01b5f52602260045260245ffd5b50919050565b601f82111561036857805f5260205f20601f840160051c810160208510156103465750805b601f840160051c820191505b81811015610365575f8155600101610352565b50505b505050565b81516001600160401b03811115610386576103866101c9565b61039a8161039484546102e9565b84610321565b6020601f8211600181146103cc575f83156103b55750848201515b5f19600385901b1c1916600184901b178455610365565b5f84815260208120601f198516915b828110156103fb57878501518255602094850194600190920191016103db565b508482101561041857868401515f19600387901b60f8161c191681555b50505050600190811b01905550565b8082018082111561044657634e487b7160e01b5f52601160045260245ffd5b92915050565b6080516107066104645f395f61010101526107065ff3fe608060405234801561000f575f5ffd5b5060043610610090575f3560e01c8063313ce56711610063578063313ce567146100fa57806370a082311461012b57806395d89b4114610153578063a9059cbb1461015b578063dd62ed3e1461016e575f5ffd5b806306fdde0314610094578063095ea7b3146100b257806318160ddd146100d557806323b872dd146100e7575b5f5ffd5b61009c6101a6565b6040516100a99190610576565b60405180910390f35b6100c56100c03660046105c6565b610236565b60405190151581526020016100a9565b6002545b6040519081526020016100a9565b6100c56100f53660046105ee565b61024f565b60405160ff7f00000000000000000000000000000000000000000000000000000000000000001681526020016100a9565b6100d9610139366004610628565b6001600160a01b03165f9081526020819052604090205490565b61009c610272565b6100c56101693660046105c6565b610281565b6100d961017c366004610648565b6001600160a01b039182165f90815260016020908152604080832093909416825291909152205490565b6060600380546101b590610679565b80601f01602080910402602001604051908101604052809291908181526020018280546101e190610679565b801561022c5780601f106102035761010080835404028352916020019161022c565b820191905f5260205f20905b81548152906001019060200180831161020f57829003601f168201915b5050505050905090565b5f3361024381858561028e565b60019150505b92915050565b5f3361025c8582856102a0565b610267858585610321565b506001949350505050565b6060600480546101b590610679565b5f33610243818585610321565b61029b838383600161037e565b505050565b6001600160a01b038381165f908152600160209081526040808320938616835292905220545f1981101561031b578181101561030d57604051637dc7a0d960e11b81526001600160a01b038416600482015260248101829052604481018390526064015b60405180910390fd5b61031b84848484035f61037e565b50505050565b6001600160a01b03831661034a57604051634b637e8f60e11b81525f6004820152602401610304565b6001600160a01b0382166103735760405163ec442f0560e01b81525f6004820152602401610304565b61029b838383610450565b6001600160a01b0384166103a75760405163e602df0560e01b81525f6004820152602401610304565b6001600160a01b0383166103d057604051634a1406b160e11b81525f6004820152602401610304565b6001600160a01b038085165f908152600160209081526040808320938716835292905220829055801561031b57826001600160a01b0316846001600160a01b03167f8c5be1e5ebec7d5bd14f71427d1e84f3dd0314c0f7b2291e5b200ac8c7c3b9258460405161044291815260200190565b60405180910390a350505050565b6001600160a01b03831661047a578060025f82825461046f91906106b1565b909155506104ea9050565b6001600160a01b0383165f90815260208190526040902054818110156104cc5760405163391434e360e21b81526001600160a01b03851660048201526024810182905260448101839052606401610304565b6001600160a01b0384165f9081526020819052604090209082900390555b6001600160a01b03821661050657600280548290039055610524565b6001600160a01b0382165f9081526020819052604090208054820190555b816001600160a01b0316836001600160a01b03167fddf252ad1be2c89b69c2b068fc378daa952ba7f163c4a11628f55a4df523b3ef8360405161056991815260200190565b60405180910390a3505050565b602081525f82518060208401528060208501604085015e5f604082850101526040601f19601f83011684010191505092915050565b80356001600160a01b03811681146105c1575f5ffd5b919050565b5f5f604083850312156105d7575f5ffd5b6105e0836105ab565b946020939093013593505050565b5f5f5f60608486031215610600575f5ffd5b610609846105ab565b9250610617602085016105ab565b929592945050506040919091013590565b5f60208284031215610638575f5ffd5b610641826105ab565b9392505050565b5f5f60408385031215610659575f5ffd5b610662836105ab565b9150610670602084016105ab565b90509250929050565b600181811c9082168061068d57607f821691505b6020821081036106ab57634e487b7160e01b5f52602260045260245ffd5b50919050565b8082018082111561024957634e487b7160e01b5f52601160045260245ffdfea26469706673582212202a67e266f969732ec616a23fa7e79fba88c7dd24069d8d19b8af9cdc77d0344264736f6c634300081c0033000000000000000000000000000000000000000000000000000000000000008000000000000000000000000000000000000000000000000000000000000000c00000000000000000000000000000000000000000000000000000000000000006000000000000000000000000000000000000000000000000000000e8d4a510000000000000000000000000000000000000000000000000000000000000000007537461626c65420000000000000000000000000000000000000000000000000000000000000000000000000000000000000000000000000000000000000000035354420000000000000000000000000000000000000000000000000000000000",
        "nonce": "0xae7",
        "chainId": "0x66eee"
      },
      "additionalContracts": [],
      "isFixedGasLimit": false
    },
    {
      "hash": "0x1fa38e5cf245780f715e05bbfa9c5d4b66da648d24d1002cfaf00c755d422aca",
      "transactionType": "CALL",
      "contractName": null,
      "contractAddress": "0xd32b0ccad5decfc9c7fafba89d918153202dbf4a",
      "function": "setPrice(address,uint256)",
      "arguments": [
        "0x612de751150638dB0E8CC8eF53CD94005742faC2",
        "2000000000000000000"
      ],
      "transaction": {
        "from": "0x0a52c4cd73157bcfdd4a7c570106016db2749b05",
        "to": "0xd32b0ccad5decfc9c7fafba89d918153202dbf4a",
        "gas": "0x6e92",
        "value": "0x0",
        "input": "0x00e4768b000000000000000000000000612de751150638db0e8cc8ef53cd94005742fac20000000000000000000000000000000000000000000000001bc16d674ec80000",
        "nonce": "0xae8",
        "chainId": "0x66eee"
      },
      "additionalContracts": [],
      "isFixedGasLimit": false
    },
    {
      "hash": "0x1a35679e6f455df4f9cbb2e1d607e8f34281634a0aeeb4737f451686e699ef7b",
      "transactionType": "CALL",
      "contractName": null,
      "contractAddress": "0xd32b0ccad5decfc9c7fafba89d918153202dbf4a",
      "function": "setPrice(address,uint256)",
      "arguments": [
        "0x31b9DbB5A4d34c9e730d676Bf254f0e1b5eb03FA",
        "4000000000000000000"
      ],
      "transaction": {
        "from": "0x0a52c4cd73157bcfdd4a7c570106016db2749b05",
        "to": "0xd32b0ccad5decfc9c7fafba89d918153202dbf4a",
        "gas": "0x6ea1",
        "value": "0x0",
        "input": "0x00e4768b00000000000000000000000031b9dbb5a4d34c9e730d676bf254f0e1b5eb03fa0000000000000000000000000000000000000000000000003782dace9d900000",
        "nonce": "0xae9",
        "chainId": "0x66eee"
      },
      "additionalContracts": [],
      "isFixedGasLimit": false
    },
    {
      "hash": "0x7df4049bf6df038a60b8332563a6601a6e361f5c523da53ac1be79d1f3b791cd",
      "transactionType": "CALL",
      "contractName": null,
      "contractAddress": "0xd32b0ccad5decfc9c7fafba89d918153202dbf4a",
      "function": "setPrice(address,uint256)",
      "arguments": [
        "0x8e0d3Ded296c324050EeF42662c6a778a96DFe73",
        "1000000000000000000"
      ],
      "transaction": {
        "from": "0x0a52c4cd73157bcfdd4a7c570106016db2749b05",
        "to": "0xd32b0ccad5decfc9c7fafba89d918153202dbf4a",
        "gas": "0x6ea1",
        "value": "0x0",
        "input": "0x00e4768b0000000000000000000000008e0d3ded296c324050eef42662c6a778a96dfe730000000000000000000000000000000000000000000000000de0b6b3a7640000",
        "nonce": "0xaea",
        "chainId": "0x66eee"
      },
      "additionalContracts": [],
      "isFixedGasLimit": false
    },
    {
      "hash": "0x4edfad62a09026ea78b4ab895f18c8f8a4eab9a5912db6528464a0ae04a1314a",
      "transactionType": "CALL",
      "contractName": null,
      "contractAddress": "0xd32b0ccad5decfc9c7fafba89d918153202dbf4a",
      "function": "setPrice(address,uint256)",
      "arguments": [
        "0xE7A42EF87A5B717B46940120A0E84e2399acff90",
        "1000000000000000000"
      ],
      "transaction": {
        "from": "0x0a52c4cd73157bcfdd4a7c570106016db2749b05",
        "to": "0xd32b0ccad5decfc9c7fafba89d918153202dbf4a",
        "gas": "0x6ea1",
        "value": "0x0",
        "input": "0x00e4768b000000000000000000000000e7a42ef87a5b717b46940120a0e84e2399acff900000000000000000000000000000000000000000000000000de0b6b3a7640000",
        "nonce": "0xaeb",
        "chainId": "0x66eee"
      },
      "additionalContracts": [],
      "isFixedGasLimit": false
    },
    {
      "hash": "0x368609691296f1005f757c2e34891cded5d1b77eb9768d03c5129e1099495714",
      "transactionType": "CALL",
      "contractName": null,
      "contractAddress": "0x612de751150638db0e8cc8ef53cd94005742fac2",
      "function": "approve(address,uint256)",
      "arguments": [
        "0x62eA3e856A006e09DfF6DD70850f9c73f74Dec79",
        "4000000000000000000"
      ],
      "transaction": {
        "from": "0x0a52c4cd73157bcfdd4a7c570106016db2749b05",
        "to": "0x612de751150638db0e8cc8ef53cd94005742fac2",
        "gas": "0x6ea1",
        "value": "0x0",
        "input": "0x095ea7b300000000000000000000000062ea3e856a006e09dff6dd70850f9c73f74dec790000000000000000000000000000000000000000000000003782dace9d900000",
        "nonce": "0xaec",
        "chainId": "0x66eee"
      },
      "additionalContracts": [],
      "isFixedGasLimit": false
    },
    {
      "hash": "0x3f7d4f47eec07b42aa660842c91e6dde256da5159de85afa9bbafb017c4f3249",
      "transactionType": "CALL",
      "contractName": null,
      "contractAddress": "0x31b9dbb5a4d34c9e730d676bf254f0e1b5eb03fa",
      "function": "approve(address,uint256)",
      "arguments": [
        "0x62eA3e856A006e09DfF6DD70850f9c73f74Dec79",
        "2000000"
      ],
      "transaction": {
        "from": "0x0a52c4cd73157bcfdd4a7c570106016db2749b05",
        "to": "0x31b9dbb5a4d34c9e730d676bf254f0e1b5eb03fa",
        "gas": "0x6e73",
        "value": "0x0",
        "input": "0x095ea7b300000000000000000000000062ea3e856a006e09dff6dd70850f9c73f74dec7900000000000000000000000000000000000000000000000000000000001e8480",
        "nonce": "0xaed",
        "chainId": "0x66eee"
      },
      "additionalContracts": [],
      "isFixedGasLimit": false
    },
    {
      "hash": "0x069df09efda41fee6502b25e8be1002cc54b01f1de424d61e93c6e7f9cc0699a",
      "transactionType": "CALL",
      "contractName": null,
      "contractAddress": "0x8e0d3ded296c324050eef42662c6a778a96dfe73",
      "function": "approve(address,uint256)",
      "arguments": [
        "0x62eA3e856A006e09DfF6DD70850f9c73f74Dec79",
        "8000000000000000000"
      ],
      "transaction": {
        "from": "0x0a52c4cd73157bcfdd4a7c570106016db2749b05",
        "to": "0x8e0d3ded296c324050eef42662c6a778a96dfe73",
        "gas": "0x6ea1",
        "value": "0x0",
        "input": "0x095ea7b300000000000000000000000062ea3e856a006e09dff6dd70850f9c73f74dec790000000000000000000000000000000000000000000000006f05b59d3b200000",
        "nonce": "0xaee",
        "chainId": "0x66eee"
      },
      "additionalContracts": [],
      "isFixedGasLimit": false
    },
    {
      "hash": "0x92284c28ef0dc80b2db0ba48139f32195248525a93a692bccfb9f3510f804575",
      "transactionType": "CALL",
      "contractName": null,
      "contractAddress": "0xe7a42ef87a5b717b46940120a0e84e2399acff90",
      "function": "approve(address,uint256)",
      "arguments": [
        "0x62eA3e856A006e09DfF6DD70850f9c73f74Dec79",
        "8000000"
      ],
      "transaction": {
        "from": "0x0a52c4cd73157bcfdd4a7c570106016db2749b05",
        "to": "0xe7a42ef87a5b717b46940120a0e84e2399acff90",
        "gas": "0x6e63",
        "value": "0x0",
        "input": "0x095ea7b300000000000000000000000062ea3e856a006e09dff6dd70850f9c73f74dec7900000000000000000000000000000000000000000000000000000000007a1200",
        "nonce": "0xaef",
        "chainId": "0x66eee"
      },
      "additionalContracts": [],
      "isFixedGasLimit": false
    },
    {
      "hash": "0x3737cbc01e89f5c9d08af80d042546414a19d34c28c5f6a5aa77f9d2fd78e1d2",
      "transactionType": "CALL",
      "contractName": "MinimalistDEX",
      "contractAddress": "0x62ea3e856a006e09dff6dd70850f9c73f74dec79",
      "function": "addLiquidity(address,address,uint256,uint256)",
      "arguments": [
        "0x612de751150638dB0E8CC8eF53CD94005742faC2",
        "0x31b9DbB5A4d34c9e730d676Bf254f0e1b5eb03FA",
        "2000000000000000000",
        "1000000"
      ],
      "transaction": {
        "from": "0x0a52c4cd73157bcfdd4a7c570106016db2749b05",
        "to": "0x62ea3e856a006e09dff6dd70850f9c73f74dec79",
        "gas": "0x7231",
        "value": "0x0",
        "input": "0xcf6c62ea000000000000000000000000612de751150638db0e8cc8ef53cd94005742fac200000000000000000000000031b9dbb5a4d34c9e730d676bf254f0e1b5eb03fa0000000000000000000000000000000000000000000000001bc16d674ec8000000000000000000000000000000000000000000000000000000000000000f4240",
        "nonce": "0xaf0",
        "chainId": "0x66eee"
      },
      "additionalContracts": [
        {
          "transactionType": "CREATE",
          "address": "0xd27522a27a3d0ee1823ecd239de7a64232f31d89",
          "initCode": "0x608060405234801561000f575f5ffd5b50336040518060400160405280601381526020017f4d696e696d616c697374204c5020546f6b656e000000000000000000000000008152506040518060400160405280600381526020016204d4c560ec1b815250816003908161007291906101a7565b50600461007f82826101a7565b5050506001600160a01b0381166100af57604051631e4fbdf760e01b81525f600482015260240160405180910390fd5b6100b8816100be565b50610261565b600580546001600160a01b038381166001600160a01b0319831681179093556040519116919082907f8be0079c531659141344cd1fd0a4f28419497f9722a3daafe3b4186f6b6457e0905f90a35050565b634e487b7160e01b5f52604160045260245ffd5b600181811c9082168061013757607f821691505b60208210810361015557634e487b7160e01b5f52602260045260245ffd5b50919050565b601f8211156101a257805f5260205f20601f840160051c810160208510156101805750805b601f840160051c820191505b8181101561019f575f815560010161018c565b50505b505050565b81516001600160401b038111156101c0576101c061010f565b6101d4816101ce8454610123565b8461015b565b6020601f821160018114610206575f83156101ef5750848201515b5f19600385901b1c1916600184901b17845561019f565b5f84815260208120601f198516915b828110156102355787850151825560209485019460019092019101610215565b508482101561025257868401515f19600387901b60f8161c191681555b50505050600190811b01905550565b6108f58061026e5f395ff3fe608060405234801561000f575f5ffd5b50600436106100e5575f3560e01c8063715018a6116100885780639dc29fac116100635780639dc29fac146101c6578063a9059cbb146101d9578063dd62ed3e146101ec578063f2fde38b14610224575f5ffd5b8063715018a61461019b5780638da5cb5b146101a357806395d89b41146101be575f5ffd5b806323b872dd116100c357806323b872dd1461013c578063313ce5671461014f57806340c10f191461015e57806370a0823114610173575f5ffd5b806306fdde03146100e9578063095ea7b31461010757806318160ddd1461012a575b5f5ffd5b6100f1610237565b6040516100fe9190610765565b60405180910390f35b61011a6101153660046107b5565b6102c7565b60405190151581526020016100fe565b6002545b6040519081526020016100fe565b61011a61014a3660046107dd565b6102e0565b604051601281526020016100fe565b61017161016c3660046107b5565b610303565b005b61012e610181366004610817565b6001600160a01b03165f9081526020819052604090205490565b610171610319565b6005546040516001600160a01b0390911681526020016100fe565b6100f161032c565b6101716101d43660046107b5565b61033b565b61011a6101e73660046107b5565b61034d565b61012e6101fa366004610837565b6001600160a01b039182165f90815260016020908152604080832093909416825291909152205490565b610171610232366004610817565b61035a565b60606003805461024690610868565b80601f016020809104026020016040519081016040528092919081815260200182805461027290610868565b80156102bd5780601f10610294576101008083540402835291602001916102bd565b820191905f5260205f20905b8154815290600101906020018083116102a057829003601f168201915b5050505050905090565b5f336102d481858561039c565b60019150505b92915050565b5f336102ed8582856103ae565b6102f885858561042a565b506001949350505050565b61030b610487565b61031582826104b4565b5050565b610321610487565b61032a5f6104e8565b565b60606004805461024690610868565b610343610487565b6103158282610539565b5f336102d481858561042a565b610362610487565b6001600160a01b03811661039057604051631e4fbdf760e01b81525f60048201526024015b60405180910390fd5b610399816104e8565b50565b6103a9838383600161056d565b505050565b6001600160a01b038381165f908152600160209081526040808320938616835292905220545f19811015610424578181101561041657604051637dc7a0d960e11b81526001600160a01b03841660048201526024810182905260448101839052606401610387565b61042484848484035f61056d565b50505050565b6001600160a01b03831661045357604051634b637e8f60e11b81525f6004820152602401610387565b6001600160a01b03821661047c5760405163ec442f0560e01b81525f6004820152602401610387565b6103a983838361063f565b6005546001600160a01b0316331461032a5760405163118cdaa760e01b8152336004820152602401610387565b6001600160a01b0382166104dd5760405163ec442f0560e01b81525f6004820152602401610387565b6103155f838361063f565b600580546001600160a01b038381166001600160a01b0319831681179093556040519116919082907f8be0079c531659141344cd1fd0a4f28419497f9722a3daafe3b4186f6b6457e0905f90a35050565b6001600160a01b03821661056257604051634b637e8f60e11b81525f6004820152602401610387565b610315825f8361063f565b6001600160a01b0384166105965760405163e602df0560e01b81525f6004820152602401610387565b6001600160a01b0383166105bf57604051634a1406b160e11b81525f6004820152602401610387565b6001600160a01b038085165f908152600160209081526040808320938716835292905220829055801561042457826001600160a01b0316846001600160a01b03167f8c5be1e5ebec7d5bd14f71427d1e84f3dd0314c0f7b2291e5b200ac8c7c3b9258460405161063191815260200190565b60405180910390a350505050565b6001600160a01b038316610669578060025f82825461065e91906108a0565b909155506106d99050565b6001600160a01b0383165f90815260208190526040902054818110156106bb5760405163391434e360e21b81526001600160a01b03851660048201526024810182905260448101839052606401610387565b6001600160a01b0384165f9081526020819052604090209082900390555b6001600160a01b0382166106f557600280548290039055610713565b6001600160a01b0382165f9081526020819052604090208054820190555b816001600160a01b0316836001600160a01b03167fddf252ad1be2c89b69c2b068fc378daa952ba7f163c4a11628f55a4df523b3ef8360405161075891815260200190565b60405180910390a3505050565b602081525f82518060208401528060208501604085015e5f604082850101526040601f19601f83011684010191505092915050565b80356001600160a01b03811681146107b0575f5ffd5b919050565b5f5f604083850312156107c6575f5ffd5b6107cf8361079a565b946020939093013593505050565b5f5f5f606084860312156107ef575f5ffd5b6107f88461079a565b92506108066020850161079a565b929592945050506040919091013590565b5f60208284031215610827575f5ffd5b6108308261079a565b9392505050565b5f5f60408385031215610848575f5ffd5b6108518361079a565b915061085f6020840161079a565b90509250929050565b600181811c9082168061087c57607f821691505b60208210810361089a57634e487b7160e01b5f52602260045260245ffd5b50919050565b808201808211156102da57634e487b7160e01b5f52601160045260245ffdfea2646970667358221220d5cd3fc7dfa6f07483fb773bbaee00a053715ff16df402b9cec62efdc3c9d45464736f6c634300081c0033"
        }
      ],
      "isFixedGasLimit": false
    },
    {
      "hash": "0x07fe62888fc034dce1469168da4510765c527b2f62da7c57449b94c704e915e6",
      "transactionType": "CALL",
      "contractName": "MinimalistDEX",
      "contractAddress": "0x62ea3e856a006e09dff6dd70850f9c73f74dec79",
      "function": "addLiquidity(address,address,uint256,uint256)",
      "arguments": [
        "0x8e0d3Ded296c324050EeF42662c6a778a96DFe73",
        "0xE7A42EF87A5B717B46940120A0E84e2399acff90",
        "4000000000000000000",
        "4000000"
      ],
      "transaction": {
        "from": "0x0a52c4cd73157bcfdd4a7c570106016db2749b05",
        "to": "0x62ea3e856a006e09dff6dd70850f9c73f74dec79",
        "gas": "0x7231",
        "value": "0x0",
        "input": "0xcf6c62ea0000000000000000000000008e0d3ded296c324050eef42662c6a778a96dfe73000000000000000000000000e7a42ef87a5b717b46940120a0e84e2399acff900000000000000000000000000000000000000000000000003782dace9d90000000000000000000000000000000000000000000000000000000000000003d0900",
        "nonce": "0xaf1",
        "chainId": "0x66eee"
      },
      "additionalContracts": [
        {
          "transactionType": "CREATE",
          "address": "0x7ec22f911b86596cd7ed4dde66c6a671352fc478",
          "initCode": "0x608060405234801561000f575f5ffd5b50336040518060400160405280601381526020017f4d696e696d616c697374204c5020546f6b656e000000000000000000000000008152506040518060400160405280600381526020016204d4c560ec1b815250816003908161007291906101a7565b50600461007f82826101a7565b5050506001600160a01b0381166100af57604051631e4fbdf760e01b81525f600482015260240160405180910390fd5b6100b8816100be565b50610261565b600580546001600160a01b038381166001600160a01b0319831681179093556040519116919082907f8be0079c531659141344cd1fd0a4f28419497f9722a3daafe3b4186f6b6457e0905f90a35050565b634e487b7160e01b5f52604160045260245ffd5b600181811c9082168061013757607f821691505b60208210810361015557634e487b7160e01b5f52602260045260245ffd5b50919050565b601f8211156101a257805f5260205f20601f840160051c810160208510156101805750805b601f840160051c820191505b8181101561019f575f815560010161018c565b50505b505050565b81516001600160401b038111156101c0576101c061010f565b6101d4816101ce8454610123565b8461015b565b6020601f821160018114610206575f83156101ef5750848201515b5f19600385901b1c1916600184901b17845561019f565b5f84815260208120601f198516915b828110156102355787850151825560209485019460019092019101610215565b508482101561025257868401515f19600387901b60f8161c191681555b50505050600190811b01905550565b6108f58061026e5f395ff3fe608060405234801561000f575f5ffd5b50600436106100e5575f3560e01c8063715018a6116100885780639dc29fac116100635780639dc29fac146101c6578063a9059cbb146101d9578063dd62ed3e146101ec578063f2fde38b14610224575f5ffd5b8063715018a61461019b5780638da5cb5b146101a357806395d89b41146101be575f5ffd5b806323b872dd116100c357806323b872dd1461013c578063313ce5671461014f57806340c10f191461015e57806370a0823114610173575f5ffd5b806306fdde03146100e9578063095ea7b31461010757806318160ddd1461012a575b5f5ffd5b6100f1610237565b6040516100fe9190610765565b60405180910390f35b61011a6101153660046107b5565b6102c7565b60405190151581526020016100fe565b6002545b6040519081526020016100fe565b61011a61014a3660046107dd565b6102e0565b604051601281526020016100fe565b61017161016c3660046107b5565b610303565b005b61012e610181366004610817565b6001600160a01b03165f9081526020819052604090205490565b610171610319565b6005546040516001600160a01b0390911681526020016100fe565b6100f161032c565b6101716101d43660046107b5565b61033b565b61011a6101e73660046107b5565b61034d565b61012e6101fa366004610837565b6001600160a01b039182165f90815260016020908152604080832093909416825291909152205490565b610171610232366004610817565b61035a565b60606003805461024690610868565b80601f016020809104026020016040519081016040528092919081815260200182805461027290610868565b80156102bd5780601f10610294576101008083540402835291602001916102bd565b820191905f5260205f20905b8154815290600101906020018083116102a057829003601f168201915b5050505050905090565b5f336102d481858561039c565b60019150505b92915050565b5f336102ed8582856103ae565b6102f885858561042a565b506001949350505050565b61030b610487565b61031582826104b4565b5050565b610321610487565b61032a5f6104e8565b565b60606004805461024690610868565b610343610487565b6103158282610539565b5f336102d481858561042a565b610362610487565b6001600160a01b03811661039057604051631e4fbdf760e01b81525f60048201526024015b60405180910390fd5b610399816104e8565b50565b6103a9838383600161056d565b505050565b6001600160a01b038381165f908152600160209081526040808320938616835292905220545f19811015610424578181101561041657604051637dc7a0d960e11b81526001600160a01b03841660048201526024810182905260448101839052606401610387565b61042484848484035f61056d565b50505050565b6001600160a01b03831661045357604051634b637e8f60e11b81525f6004820152602401610387565b6001600160a01b03821661047c5760405163ec442f0560e01b81525f6004820152602401610387565b6103a983838361063f565b6005546001600160a01b0316331461032a5760405163118cdaa760e01b8152336004820152602401610387565b6001600160a01b0382166104dd5760405163ec442f0560e01b81525f6004820152602401610387565b6103155f838361063f565b600580546001600160a01b038381166001600160a01b0319831681179093556040519116919082907f8be0079c531659141344cd1fd0a4f28419497f9722a3daafe3b4186f6b6457e0905f90a35050565b6001600160a01b03821661056257604051634b637e8f60e11b81525f6004820152602401610387565b610315825f8361063f565b6001600160a01b0384166105965760405163e602df0560e01b81525f6004820152602401610387565b6001600160a01b0383166105bf57604051634a1406b160e11b81525f6004820152602401610387565b6001600160a01b038085165f908152600160209081526040808320938716835292905220829055801561042457826001600160a01b0316846001600160a01b03167f8c5be1e5ebec7d5bd14f71427d1e84f3dd0314c0f7b2291e5b200ac8c7c3b9258460405161063191815260200190565b60405180910390a350505050565b6001600160a01b038316610669578060025f82825461065e91906108a0565b909155506106d99050565b6001600160a01b0383165f90815260208190526040902054818110156106bb5760405163391434e360e21b81526001600160a01b03851660048201526024810182905260448101839052606401610387565b6001600160a01b0384165f9081526020819052604090209082900390555b6001600160a01b0382166106f557600280548290039055610713565b6001600160a01b0382165f9081526020819052604090208054820190555b816001600160a01b0316836001600160a01b03167fddf252ad1be2c89b69c2b068fc378daa952ba7f163c4a11628f55a4df523b3ef8360405161075891815260200190565b60405180910390a3505050565b602081525f82518060208401528060208501604085015e5f604082850101526040601f19601f83011684010191505092915050565b80356001600160a01b03811681146107b0575f5ffd5b919050565b5f5f604083850312156107c6575f5ffd5b6107cf8361079a565b946020939093013593505050565b5f5f5f606084860312156107ef575f5ffd5b6107f88461079a565b92506108066020850161079a565b929592945050506040919091013590565b5f60208284031215610827575f5ffd5b6108308261079a565b9392505050565b5f5f60408385031215610848575f5ffd5b6108518361079a565b915061085f6020840161079a565b90509250929050565b600181811c9082168061087c57607f821691505b60208210810361089a57634e487b7160e01b5f52602260045260245ffd5b50919050565b808201808211156102da57634e487b7160e01b5f52601160045260245ffdfea2646970667358221220d5cd3fc7dfa6f07483fb773bbaee00a053715ff16df402b9cec62efdc3c9d45464736f6c634300081c0033"
        }
      ],
      "isFixedGasLimit": false
    },
    {
      "hash": "0x6602c8d3b7ee5d2a6dcb177b05702269eaa00e9c7866802d693ade2901f11cb3",
      "transactionType": "CALL",
      "contractName": "MinimalistDEX",
      "contractAddress": "0x62ea3e856a006e09dff6dd70850f9c73f74dec79",
      "function": "addLiquidity(address,address,uint256,uint256)",
      "arguments": [
        "0x612de751150638dB0E8CC8eF53CD94005742faC2",
        "0xE7A42EF87A5B717B46940120A0E84e2399acff90",
        "2000000000000000000",
        "4000000"
      ],
      "transaction": {
        "from": "0x0a52c4cd73157bcfdd4a7c570106016db2749b05",
        "to": "0x62ea3e856a006e09dff6dd70850f9c73f74dec79",
        "gas": "0x7221",
        "value": "0x0",
        "input": "0xcf6c62ea000000000000000000000000612de751150638db0e8cc8ef53cd94005742fac2000000000000000000000000e7a42ef87a5b717b46940120a0e84e2399acff900000000000000000000000000000000000000000000000001bc16d674ec8000000000000000000000000000000000000000000000000000000000000003d0900",
        "nonce": "0xaf2",
        "chainId": "0x66eee"
      },
      "additionalContracts": [
        {
          "transactionType": "CREATE",
          "address": "0x626bcafdb4fcec94d00de6729e08ef729242764a",
          "initCode": "0x608060405234801561000f575f5ffd5b50336040518060400160405280601381526020017f4d696e696d616c697374204c5020546f6b656e000000000000000000000000008152506040518060400160405280600381526020016204d4c560ec1b815250816003908161007291906101a7565b50600461007f82826101a7565b5050506001600160a01b0381166100af57604051631e4fbdf760e01b81525f600482015260240160405180910390fd5b6100b8816100be565b50610261565b600580546001600160a01b038381166001600160a01b0319831681179093556040519116919082907f8be0079c531659141344cd1fd0a4f28419497f9722a3daafe3b4186f6b6457e0905f90a35050565b634e487b7160e01b5f52604160045260245ffd5b600181811c9082168061013757607f821691505b60208210810361015557634e487b7160e01b5f52602260045260245ffd5b50919050565b601f8211156101a257805f5260205f20601f840160051c810160208510156101805750805b601f840160051c820191505b8181101561019f575f815560010161018c565b50505b505050565b81516001600160401b038111156101c0576101c061010f565b6101d4816101ce8454610123565b8461015b565b6020601f821160018114610206575f83156101ef5750848201515b5f19600385901b1c1916600184901b17845561019f565b5f84815260208120601f198516915b828110156102355787850151825560209485019460019092019101610215565b508482101561025257868401515f19600387901b60f8161c191681555b50505050600190811b01905550565b6108f58061026e5f395ff3fe608060405234801561000f575f5ffd5b50600436106100e5575f3560e01c8063715018a6116100885780639dc29fac116100635780639dc29fac146101c6578063a9059cbb146101d9578063dd62ed3e146101ec578063f2fde38b14610224575f5ffd5b8063715018a61461019b5780638da5cb5b146101a357806395d89b41146101be575f5ffd5b806323b872dd116100c357806323b872dd1461013c578063313ce5671461014f57806340c10f191461015e57806370a0823114610173575f5ffd5b806306fdde03146100e9578063095ea7b31461010757806318160ddd1461012a575b5f5ffd5b6100f1610237565b6040516100fe9190610765565b60405180910390f35b61011a6101153660046107b5565b6102c7565b60405190151581526020016100fe565b6002545b6040519081526020016100fe565b61011a61014a3660046107dd565b6102e0565b604051601281526020016100fe565b61017161016c3660046107b5565b610303565b005b61012e610181366004610817565b6001600160a01b03165f9081526020819052604090205490565b610171610319565b6005546040516001600160a01b0390911681526020016100fe565b6100f161032c565b6101716101d43660046107b5565b61033b565b61011a6101e73660046107b5565b61034d565b61012e6101fa366004610837565b6001600160a01b039182165f90815260016020908152604080832093909416825291909152205490565b610171610232366004610817565b61035a565b60606003805461024690610868565b80601f016020809104026020016040519081016040528092919081815260200182805461027290610868565b80156102bd5780601f10610294576101008083540402835291602001916102bd565b820191905f5260205f20905b8154815290600101906020018083116102a057829003601f168201915b5050505050905090565b5f336102d481858561039c565b60019150505b92915050565b5f336102ed8582856103ae565b6102f885858561042a565b506001949350505050565b61030b610487565b61031582826104b4565b5050565b610321610487565b61032a5f6104e8565b565b60606004805461024690610868565b610343610487565b6103158282610539565b5f336102d481858561042a565b610362610487565b6001600160a01b03811661039057604051631e4fbdf760e01b81525f60048201526024015b60405180910390fd5b610399816104e8565b50565b6103a9838383600161056d565b505050565b6001600160a01b038381165f908152600160209081526040808320938616835292905220545f19811015610424578181101561041657604051637dc7a0d960e11b81526001600160a01b03841660048201526024810182905260448101839052606401610387565b61042484848484035f61056d565b50505050565b6001600160a01b03831661045357604051634b637e8f60e11b81525f6004820152602401610387565b6001600160a01b03821661047c5760405163ec442f0560e01b81525f6004820152602401610387565b6103a983838361063f565b6005546001600160a01b0316331461032a5760405163118cdaa760e01b8152336004820152602401610387565b6001600160a01b0382166104dd5760405163ec442f0560e01b81525f6004820152602401610387565b6103155f838361063f565b600580546001600160a01b038381166001600160a01b0319831681179093556040519116919082907f8be0079c531659141344cd1fd0a4f28419497f9722a3daafe3b4186f6b6457e0905f90a35050565b6001600160a01b03821661056257604051634b637e8f60e11b81525f6004820152602401610387565b610315825f8361063f565b6001600160a01b0384166105965760405163e602df0560e01b81525f6004820152602401610387565b6001600160a01b0383166105bf57604051634a1406b160e11b81525f6004820152602401610387565b6001600160a01b038085165f908152600160209081526040808320938716835292905220829055801561042457826001600160a01b0316846001600160a01b03167f8c5be1e5ebec7d5bd14f71427d1e84f3dd0314c0f7b2291e5b200ac8c7c3b9258460405161063191815260200190565b60405180910390a350505050565b6001600160a01b038316610669578060025f82825461065e91906108a0565b909155506106d99050565b6001600160a01b0383165f90815260208190526040902054818110156106bb5760405163391434e360e21b81526001600160a01b03851660048201526024810182905260448101839052606401610387565b6001600160a01b0384165f9081526020819052604090209082900390555b6001600160a01b0382166106f557600280548290039055610713565b6001600160a01b0382165f9081526020819052604090208054820190555b816001600160a01b0316836001600160a01b03167fddf252ad1be2c89b69c2b068fc378daa952ba7f163c4a11628f55a4df523b3ef8360405161075891815260200190565b60405180910390a3505050565b602081525f82518060208401528060208501604085015e5f604082850101526040601f19601f83011684010191505092915050565b80356001600160a01b03811681146107b0575f5ffd5b919050565b5f5f604083850312156107c6575f5ffd5b6107cf8361079a565b946020939093013593505050565b5f5f5f606084860312156107ef575f5ffd5b6107f88461079a565b92506108066020850161079a565b929592945050506040919091013590565b5f60208284031215610827575f5ffd5b6108308261079a565b9392505050565b5f5f60408385031215610848575f5ffd5b6108518361079a565b915061085f6020840161079a565b90509250929050565b600181811c9082168061087c57607f821691505b60208210810361089a57634e487b7160e01b5f52602260045260245ffd5b50919050565b808201808211156102da57634e487b7160e01b5f52601160045260245ffdfea2646970667358221220d5cd3fc7dfa6f07483fb773bbaee00a053715ff16df402b9cec62efdc3c9d45464736f6c634300081c0033"
        }
      ],
      "isFixedGasLimit": false
    },
    {
      "hash": "0x711b38c7e5b81ef9fdc903fdcd53cacb7cb8a833ed5a22ed81acb30b5ec426c9",
      "transactionType": "CALL",
      "contractName": "MinimalistDEX",
      "contractAddress": "0x62ea3e856a006e09dff6dd70850f9c73f74dec79",
      "function": "addLiquidity(address,address,uint256,uint256)",
      "arguments": [
        "0x31b9DbB5A4d34c9e730d676Bf254f0e1b5eb03FA",
        "0x8e0d3Ded296c324050EeF42662c6a778a96DFe73",
        "1000000",
        "4000000000000000000"
      ],
      "transaction": {
        "from": "0x0a52c4cd73157bcfdd4a7c570106016db2749b05",
        "to": "0x62ea3e856a006e09dff6dd70850f9c73f74dec79",
        "gas": "0x7240",
        "value": "0x0",
        "input": "0xcf6c62ea00000000000000000000000031b9dbb5a4d34c9e730d676bf254f0e1b5eb03fa0000000000000000000000008e0d3ded296c324050eef42662c6a778a96dfe7300000000000000000000000000000000000000000000000000000000000f42400000000000000000000000000000000000000000000000003782dace9d900000",
        "nonce": "0xaf3",
        "chainId": "0x66eee"
      },
      "additionalContracts": [
        {
          "transactionType": "CREATE",
          "address": "0x50e5308b04f1bbce6001b8a44eb88a85cb7f3978",
          "initCode": "0x608060405234801561000f575f5ffd5b50336040518060400160405280601381526020017f4d696e696d616c697374204c5020546f6b656e000000000000000000000000008152506040518060400160405280600381526020016204d4c560ec1b815250816003908161007291906101a7565b50600461007f82826101a7565b5050506001600160a01b0381166100af57604051631e4fbdf760e01b81525f600482015260240160405180910390fd5b6100b8816100be565b50610261565b600580546001600160a01b038381166001600160a01b0319831681179093556040519116919082907f8be0079c531659141344cd1fd0a4f28419497f9722a3daafe3b4186f6b6457e0905f90a35050565b634e487b7160e01b5f52604160045260245ffd5b600181811c9082168061013757607f821691505b60208210810361015557634e487b7160e01b5f52602260045260245ffd5b50919050565b601f8211156101a257805f5260205f20601f840160051c810160208510156101805750805b601f840160051c820191505b8181101561019f575f815560010161018c565b50505b505050565b81516001600160401b038111156101c0576101c061010f565b6101d4816101ce8454610123565b8461015b565b6020601f821160018114610206575f83156101ef5750848201515b5f19600385901b1c1916600184901b17845561019f565b5f84815260208120601f198516915b828110156102355787850151825560209485019460019092019101610215565b508482101561025257868401515f19600387901b60f8161c191681555b50505050600190811b01905550565b6108f58061026e5f395ff3fe608060405234801561000f575f5ffd5b50600436106100e5575f3560e01c8063715018a6116100885780639dc29fac116100635780639dc29fac146101c6578063a9059cbb146101d9578063dd62ed3e146101ec578063f2fde38b14610224575f5ffd5b8063715018a61461019b5780638da5cb5b146101a357806395d89b41146101be575f5ffd5b806323b872dd116100c357806323b872dd1461013c578063313ce5671461014f57806340c10f191461015e57806370a0823114610173575f5ffd5b806306fdde03146100e9578063095ea7b31461010757806318160ddd1461012a575b5f5ffd5b6100f1610237565b6040516100fe9190610765565b60405180910390f35b61011a6101153660046107b5565b6102c7565b60405190151581526020016100fe565b6002545b6040519081526020016100fe565b61011a61014a3660046107dd565b6102e0565b604051601281526020016100fe565b61017161016c3660046107b5565b610303565b005b61012e610181366004610817565b6001600160a01b03165f9081526020819052604090205490565b610171610319565b6005546040516001600160a01b0390911681526020016100fe565b6100f161032c565b6101716101d43660046107b5565b61033b565b61011a6101e73660046107b5565b61034d565b61012e6101fa366004610837565b6001600160a01b039182165f90815260016020908152604080832093909416825291909152205490565b610171610232366004610817565b61035a565b60606003805461024690610868565b80601f016020809104026020016040519081016040528092919081815260200182805461027290610868565b80156102bd5780601f10610294576101008083540402835291602001916102bd565b820191905f5260205f20905b8154815290600101906020018083116102a057829003601f168201915b5050505050905090565b5f336102d481858561039c565b60019150505b92915050565b5f336102ed8582856103ae565b6102f885858561042a565b506001949350505050565b61030b610487565b61031582826104b4565b5050565b610321610487565b61032a5f6104e8565b565b60606004805461024690610868565b610343610487565b6103158282610539565b5f336102d481858561042a565b610362610487565b6001600160a01b03811661039057604051631e4fbdf760e01b81525f60048201526024015b60405180910390fd5b610399816104e8565b50565b6103a9838383600161056d565b505050565b6001600160a01b038381165f908152600160209081526040808320938616835292905220545f19811015610424578181101561041657604051637dc7a0d960e11b81526001600160a01b03841660048201526024810182905260448101839052606401610387565b61042484848484035f61056d565b50505050565b6001600160a01b03831661045357604051634b637e8f60e11b81525f6004820152602401610387565b6001600160a01b03821661047c5760405163ec442f0560e01b81525f6004820152602401610387565b6103a983838361063f565b6005546001600160a01b0316331461032a5760405163118cdaa760e01b8152336004820152602401610387565b6001600160a01b0382166104dd5760405163ec442f0560e01b81525f6004820152602401610387565b6103155f838361063f565b600580546001600160a01b038381166001600160a01b0319831681179093556040519116919082907f8be0079c531659141344cd1fd0a4f28419497f9722a3daafe3b4186f6b6457e0905f90a35050565b6001600160a01b03821661056257604051634b637e8f60e11b81525f6004820152602401610387565b610315825f8361063f565b6001600160a01b0384166105965760405163e602df0560e01b81525f6004820152602401610387565b6001600160a01b0383166105bf57604051634a1406b160e11b81525f6004820152602401610387565b6001600160a01b038085165f908152600160209081526040808320938716835292905220829055801561042457826001600160a01b0316846001600160a01b03167f8c5be1e5ebec7d5bd14f71427d1e84f3dd0314c0f7b2291e5b200ac8c7c3b9258460405161063191815260200190565b60405180910390a350505050565b6001600160a01b038316610669578060025f82825461065e91906108a0565b909155506106d99050565b6001600160a01b0383165f90815260208190526040902054818110156106bb5760405163391434e360e21b81526001600160a01b03851660048201526024810182905260448101839052606401610387565b6001600160a01b0384165f9081526020819052604090209082900390555b6001600160a01b0382166106f557600280548290039055610713565b6001600160a01b0382165f9081526020819052604090208054820190555b816001600160a01b0316836001600160a01b03167fddf252ad1be2c89b69c2b068fc378daa952ba7f163c4a11628f55a4df523b3ef8360405161075891815260200190565b60405180910390a3505050565b602081525f82518060208401528060208501604085015e5f604082850101526040601f19601f83011684010191505092915050565b80356001600160a01b03811681146107b0575f5ffd5b919050565b5f5f604083850312156107c6575f5ffd5b6107cf8361079a565b946020939093013593505050565b5f5f5f606084860312156107ef575f5ffd5b6107f88461079a565b92506108066020850161079a565b929592945050506040919091013590565b5f60208284031215610827575f5ffd5b6108308261079a565b9392505050565b5f5f60408385031215610848575f5ffd5b6108518361079a565b915061085f6020840161079a565b90509250929050565b600181811c9082168061087c57607f821691505b60208210810361089a57634e487b7160e01b5f52602260045260245ffd5b50919050565b808201808211156102da57634e487b7160e01b5f52601160045260245ffdfea2646970667358221220d5cd3fc7dfa6f07483fb773bbaee00a053715ff16df402b9cec62efdc3c9d45464736f6c634300081c0033"
        }
      ],
      "isFixedGasLimit": false
    }
  ],
  "receipts": [
    {
      "status": "0x1",
      "cumulativeGasUsed": "0x3d7ae",
      "logs": [
        {
          "address": "0xd32b0ccad5decfc9c7fafba89d918153202dbf4a",
          "topics": [
            "0x8be0079c531659141344cd1fd0a4f28419497f9722a3daafe3b4186f6b6457e0",
            "0x0000000000000000000000000000000000000000000000000000000000000000",
            "0x0000000000000000000000000a52c4cd73157bcfdd4a7c570106016db2749b05"
          ],
          "data": "0x",
          "blockHash": "0x2aa9c6cc59ff04d15fa55919aff4e04024146ecfeb388709664a2da9e6341221",
          "blockNumber": "0x7432f23",
          "transactionHash": "0xf13a85a5e8947766f70655befe1faddc95ec1531156e2463f2332fb36c494feb",
          "transactionIndex": "0x1",
          "logIndex": "0x0",
          "removed": false
        }
      ],
      "logsBloom": "0x00000000000000000000000000000000000000000000000000800000000000000000000000000000000000000000000000000000000000000000000020000000000000080000000000000000000000000001000000000000000000000000000000000000020000000000000000000800000000000000000100000000000000400000000000000000000000000000000000000000000000000000000000001000000000000000000000000000000000000008000000000000000000000000000000000000000000000000400000000000000000000000000000000000000020000000000000000000000000000000000000000000000000000000000000000000",
      "type": "0x2",
      "transactionHash": "0xf13a85a5e8947766f70655befe1faddc95ec1531156e2463f2332fb36c494feb",
      "transactionIndex": "0x1",
      "blockHash": "0x2aa9c6cc59ff04d15fa55919aff4e04024146ecfeb388709664a2da9e6341221",
      "blockNumber": "0x7432f23",
      "gasUsed": "0x3d7ae",
      "effectiveGasPrice": "0x5f5e100",
      "from": "0x0a52c4cd73157bcfdd4a7c570106016db2749b05",
      "to": null,
      "contractAddress": "0xd32b0ccad5decfc9c7fafba89d918153202dbf4a",
      "gasUsedForL1": "0x0",
      "l1BlockNumber": "0x74def3"
    },
    {
      "status": "0x1",
      "cumulativeGasUsed": "0x1b67bf",
      "logs": [
        {
          "address": "0x62ea3e856a006e09dff6dd70850f9c73f74dec79",
          "topics": [
            "0x8be0079c531659141344cd1fd0a4f28419497f9722a3daafe3b4186f6b6457e0",
            "0x0000000000000000000000000000000000000000000000000000000000000000",
            "0x0000000000000000000000000a52c4cd73157bcfdd4a7c570106016db2749b05"
          ],
          "data": "0x",
          "blockHash": "0x30d75c280c335b06561ce0a786e00ac4fd671899950e342f00e8134969de6804",
          "blockNumber": "0x7432f2a",
          "transactionHash": "0x4a81c7e64f5199b730c53bf565c7694ace02793ef1ed1dead7cb0e6819657296",
          "transactionIndex": "0x2",
          "logIndex": "0x0",
          "removed": false
        }
      ],
      "logsBloom": "0x00000000000000000000000000000000000000000000000000800000000000000000000000000000000000000000000000000000000000000000000020000000000000000000001000000000000000000001000000000000000000000000000000000000020000000000000000000800000000000000000000000000000000400000000000000000000000000000000000000000000000000000000000001000000000000000000000000000000000008000000000000000000000000000000000000000000000000000400000000000000000000000000000000000000020000000020000000000000000000000000000000000000000000000000000000000",
      "type": "0x2",
      "transactionHash": "0x4a81c7e64f5199b730c53bf565c7694ace02793ef1ed1dead7cb0e6819657296",
      "transactionIndex": "0x2",
      "blockHash": "0x30d75c280c335b06561ce0a786e00ac4fd671899950e342f00e8134969de6804",
      "blockNumber": "0x7432f2a",
      "gasUsed": "0x1b15b7",
      "effectiveGasPrice": "0x5f5e100",
      "from": "0x0a52c4cd73157bcfdd4a7c570106016db2749b05",
      "to": null,
      "contractAddress": "0x62ea3e856a006e09dff6dd70850f9c73f74dec79",
      "gasUsedForL1": "0x0",
      "l1BlockNumber": "0x74def3"
    },
    {
      "status": "0x1",
      "cumulativeGasUsed": "0x9d3a4",
      "logs": [
        {
          "address": "0x612de751150638db0e8cc8ef53cd94005742fac2",
          "topics": [
            "0xddf252ad1be2c89b69c2b068fc378daa952ba7f163c4a11628f55a4df523b3ef",
            "0x0000000000000000000000000000000000000000000000000000000000000000",
            "0x0000000000000000000000000a52c4cd73157bcfdd4a7c570106016db2749b05"
          ],
          "data": "0x00000000000000000000000000000000000000000000d3c21bcecceda1000000",
          "blockHash": "0xd6abecb020e993bdf3cfcb1b0cd5365a23e65a8a14f53cfbaa7937109548a699",
          "blockNumber": "0x7432f2f",
          "transactionHash": "0xdd2989c8934a94170308c25b8f69250f4be07e283e664db516786d2ee655b148",
          "transactionIndex": "0x2",
          "logIndex": "0x3",
          "removed": false
        }
      ],
      "logsBloom": "0x00000000000000000000000000000000000000000000000000000000000000000000000100000000000000000000000000000000000000000000000020000000000000000000000000000008000000000000000000000000000000000000000000000000020000000000000000000800004000000000000000000010000000000000000000000000000000000000000000000000000000000000000000001000000000000000000000000000000000000000000000000000000000000000000000000002000000000000400000000000000000000000000000000000000020000000000000000000000000000000000000020000000000000000000000000000",
      "type": "0x2",
      "transactionHash": "0xdd2989c8934a94170308c25b8f69250f4be07e283e664db516786d2ee655b148",
      "transactionIndex": "0x2",
      "blockHash": "0xd6abecb020e993bdf3cfcb1b0cd5365a23e65a8a14f53cfbaa7937109548a699",
      "blockNumber": "0x7432f2f",
      "gasUsed": "0x86fb3",
      "effectiveGasPrice": "0x5f5e100",
      "from": "0x0a52c4cd73157bcfdd4a7c570106016db2749b05",
      "to": null,
      "contractAddress": "0x612de751150638db0e8cc8ef53cd94005742fac2",
      "gasUsedForL1": "0x0",
      "l1BlockNumber": "0x74def3"
    },
    {
      "status": "0x1",
      "cumulativeGasUsed": "0x120612",
      "logs": [
        {
          "address": "0x31b9dbb5a4d34c9e730d676bf254f0e1b5eb03fa",
          "topics": [
            "0xddf252ad1be2c89b69c2b068fc378daa952ba7f163c4a11628f55a4df523b3ef",
            "0x0000000000000000000000000000000000000000000000000000000000000000",
            "0x0000000000000000000000000a52c4cd73157bcfdd4a7c570106016db2749b05"
          ],
          "data": "0x000000000000000000000000000000000000000000000000000000e8d4a51000",
          "blockHash": "0x3874428f8f5b9df187ebed5823e7664ed73364f2476a5c18aebc005a67ddeb76",
          "blockNumber": "0x7432f33",
          "transactionHash": "0x43ece7d3e5f4774cb0654d917b88bbfc1ae75329c653b53b258e5510e529dbf7",
          "transactionIndex": "0x2",
          "logIndex": "0x0",
          "removed": false
        }
      ],
      "logsBloom": "0x00000000000000000000000000000000000000000000000000000000000000000000000000000000000000000000000000000000000000000000000020000000000000000000000000000008000000000000000000000000000000000000000000000000020000400000000000000800000000000000000000000010000000000000000000000000000000000000000000000000000000000000000000001000000000000000000000002000000000000000000000000000000000000000000000000002800000000000400000000000000000000000000000000000000020000000000000000000000000000000000000000000000000000000000000000000",
      "type": "0x2",
      "transactionHash": "0x43ece7d3e5f4774cb0654d917b88bbfc1ae75329c653b53b258e5510e529dbf7",
      "transactionIndex": "0x2",
      "blockHash": "0x3874428f8f5b9df187ebed5823e7664ed73364f2476a5c18aebc005a67ddeb76",
      "blockNumber": "0x7432f33",
      "gasUsed": "0x86f8f",
      "effectiveGasPrice": "0x5f5e100",
      "from": "0x0a52c4cd73157bcfdd4a7c570106016db2749b05",
      "to": null,
      "contractAddress": "0x31b9dbb5a4d34c9e730d676bf254f0e1b5eb03fa",
      "gasUsedForL1": "0x0",
      "l1BlockNumber": "0x74def3"
    },
    {
      "status": "0x1",
      "cumulativeGasUsed": "0x86fbf",
      "logs": [
        {
          "address": "0x8e0d3ded296c324050eef42662c6a778a96dfe73",
          "topics": [
            "0xddf252ad1be2c89b69c2b068fc378daa952ba7f163c4a11628f55a4df523b3ef",
            "0x0000000000000000000000000000000000000000000000000000000000000000",
            "0x0000000000000000000000000a52c4cd73157bcfdd4a7c570106016db2749b05"
          ],
          "data": "0x00000000000000000000000000000000000000000000d3c21bcecceda1000000",
          "blockHash": "0x3a39e8b1e2c2e370ff8b149cfdc44f3474785e5123423da6bf21cfb9d7c39680",
          "blockNumber": "0x7432f39",
          "transactionHash": "0x41ec82dec0554b50cfb697dee2012169eedf6c3a43fbfde58d7c003c3da0d70a",
          "transactionIndex": "0x1",
          "logIndex": "0x0",
          "removed": false
        }
      ],
      "logsBloom": "0x00000000000000000000000000000000000000000000000000000000000000000000000000000000000000000000000000000000000000000000000020000000000000000000000000000008000000000000000000000000000000000000000000000000020000000000000000000800000000000000000000000010000000000000000000000000000000000000000000000000000000000000000000001000000000000000000000000000000000000000000000080000000000020000000000000002080000000000400000000000000000000000000000000000000020000000000000000000000000000000000000000000000000000000000000000000",
      "type": "0x2",
      "transactionHash": "0x41ec82dec0554b50cfb697dee2012169eedf6c3a43fbfde58d7c003c3da0d70a",
      "transactionIndex": "0x1",
      "blockHash": "0x3a39e8b1e2c2e370ff8b149cfdc44f3474785e5123423da6bf21cfb9d7c39680",
      "blockNumber": "0x7432f39",
      "gasUsed": "0x86fbf",
      "effectiveGasPrice": "0x5f5e100",
      "from": "0x0a52c4cd73157bcfdd4a7c570106016db2749b05",
      "to": null,
      "contractAddress": "0x8e0d3ded296c324050eef42662c6a778a96dfe73",
      "gasUsedForL1": "0x0",
      "l1BlockNumber": "0x74def3"
    },
    {
      "status": "0x1",
      "cumulativeGasUsed": "0x9de6d",
      "logs": [
        {
          "address": "0xe7a42ef87a5b717b46940120a0e84e2399acff90",
          "topics": [
            "0xddf252ad1be2c89b69c2b068fc378daa952ba7f163c4a11628f55a4df523b3ef",
            "0x0000000000000000000000000000000000000000000000000000000000000000",
            "0x0000000000000000000000000a52c4cd73157bcfdd4a7c570106016db2749b05"
          ],
          "data": "0x000000000000000000000000000000000000000000000000000000e8d4a51000",
          "blockHash": "0xd60dcb256f26ecc4a5d537afda5175d3935e16b6afcbdbf502bcc27d7d3c0b73",
          "blockNumber": "0x7432f3f",
          "transactionHash": "0xc01440efa5ddd9be320f478612c0b36d20fc1b9a0aa4055a551891c7e39eb3b3",
          "transactionIndex": "0x3",
          "logIndex": "0x1",
          "removed": false
        }
      ],
      "logsBloom": "0x00000000000000000000000000000000000000000000000000000000100000000000000000000000000000000000000000000000000000000000000020000000000000000000000000000008000000000000000000000000000000000000000000000000020000000000000000000800000000000000000000040010000000000000000000000000000000000000000000000000000000000000000000001000000000000000000000000000000000000000000000000080000000000000000000000002000000000000400000000000000000000000000000000000000020000000000000000000000000000000000000000000000000000000000000000000",
      "type": "0x2",
      "transactionHash": "0xc01440efa5ddd9be320f478612c0b36d20fc1b9a0aa4055a551891c7e39eb3b3",
      "transactionIndex": "0x3",
      "blockHash": "0xd60dcb256f26ecc4a5d537afda5175d3935e16b6afcbdbf502bcc27d7d3c0b73",
      "blockNumber": "0x7432f3f",
      "gasUsed": "0x86f9b",
      "effectiveGasPrice": "0x5f5e100",
      "from": "0x0a52c4cd73157bcfdd4a7c570106016db2749b05",
      "to": null,
      "contractAddress": "0xe7a42ef87a5b717b46940120a0e84e2399acff90",
      "gasUsedForL1": "0x0",
      "l1BlockNumber": "0x74def3"
    },
    {
      "status": "0x1",
      "cumulativeGasUsed": "0xba7f",
      "logs": [
        {
          "address": "0xd32b0ccad5decfc9c7fafba89d918153202dbf4a",
          "topics": [
            "0x0d86730737b142fc160892fa8a0f2db687a92a0e294d1ad70624cf5acef03b84",
            "0x000000000000000000000000612de751150638db0e8cc8ef53cd94005742fac2"
          ],
          "data": "0x0000000000000000000000000000000000000000000000001bc16d674ec80000",
          "blockHash": "0x871a71f459eaebc393ebe6f06bbd512a6f8983190d591545c96e70503223f69c",
          "blockNumber": "0x7432f45",
          "transactionHash": "0x1fa38e5cf245780f715e05bbfa9c5d4b66da648d24d1002cfaf00c755d422aca",
          "transactionIndex": "0x1",
          "logIndex": "0x0",
          "removed": false
        }
      ],
      "logsBloom": "0x00000000000000000000000000000000000000000000000000000000000000000000000000000000000000000000000000200000000000000000000000000000000000080000000000000000000000000000000000000000000000000000000000000000001000000000400000000000000000000000000100000000100000000000000000000000000000000000000000000000000000000000000000000000000000000000000000000000000000000008000000000000000000000000000000000000000000000000000000000000000000000000000000000000000000000000001000000000000000000080000000000000000000000000000000000000",
      "type": "0x2",
      "transactionHash": "0x1fa38e5cf245780f715e05bbfa9c5d4b66da648d24d1002cfaf00c755d422aca",
      "transactionIndex": "0x1",
      "blockHash": "0x871a71f459eaebc393ebe6f06bbd512a6f8983190d591545c96e70503223f69c",
      "blockNumber": "0x7432f45",
      "gasUsed": "0xba7f",
      "effectiveGasPrice": "0x5f5e100",
      "from": "0x0a52c4cd73157bcfdd4a7c570106016db2749b05",
      "to": "0xd32b0ccad5decfc9c7fafba89d918153202dbf4a",
      "contractAddress": null,
      "gasUsedForL1": "0x0",
      "l1BlockNumber": "0x74def3"
    },
    {
      "status": "0x1",
      "cumulativeGasUsed": "0xba8b",
      "logs": [
        {
          "address": "0xd32b0ccad5decfc9c7fafba89d918153202dbf4a",
          "topics": [
            "0x0d86730737b142fc160892fa8a0f2db687a92a0e294d1ad70624cf5acef03b84",
            "0x00000000000000000000000031b9dbb5a4d34c9e730d676bf254f0e1b5eb03fa"
          ],
          "data": "0x0000000000000000000000000000000000000000000000003782dace9d900000",
          "blockHash": "0x94b9a13e0e1f4dd5e0c4aa3184971d65af8bd8d4a6cccddc2ad2d47f42511c8a",
          "blockNumber": "0x7432f4b",
          "transactionHash": "0x1a35679e6f455df4f9cbb2e1d607e8f34281634a0aeeb4737f451686e699ef7b",
          "transactionIndex": "0x1",
          "logIndex": "0x0",
          "removed": false
        }
      ],
      "logsBloom": "0x00000000000000000000000000000000000000000000000000000000000000000000000000000000000000000000000000200000000000000010000000000000000000080000000000000000000000000000000000000000000000000000000000000000001000000000000000000000000000000000000100000000000000200000000000000000000000000000000000000000000000000000000000000001000000000000000000000000000000000008000000000000000000000000000000000000000000000000000000000000000000000000000000000000000000000000001000000000000000000000000000000000000000000000000000000000",
      "type": "0x2",
      "transactionHash": "0x1a35679e6f455df4f9cbb2e1d607e8f34281634a0aeeb4737f451686e699ef7b",
      "transactionIndex": "0x1",
      "blockHash": "0x94b9a13e0e1f4dd5e0c4aa3184971d65af8bd8d4a6cccddc2ad2d47f42511c8a",
      "blockNumber": "0x7432f4b",
      "gasUsed": "0xba8b",
      "effectiveGasPrice": "0x5f5e100",
      "from": "0x0a52c4cd73157bcfdd4a7c570106016db2749b05",
      "to": "0xd32b0ccad5decfc9c7fafba89d918153202dbf4a",
      "contractAddress": null,
      "gasUsedForL1": "0x0",
      "l1BlockNumber": "0x74def5"
    },
    {
      "status": "0x1",
      "cumulativeGasUsed": "0xba8b",
      "logs": [
        {
          "address": "0xd32b0ccad5decfc9c7fafba89d918153202dbf4a",
          "topics": [
            "0x0d86730737b142fc160892fa8a0f2db687a92a0e294d1ad70624cf5acef03b84",
            "0x0000000000000000000000008e0d3ded296c324050eef42662c6a778a96dfe73"
          ],
          "data": "0x0000000000000000000000000000000000000000000000000de0b6b3a7640000",
          "blockHash": "0x35b4a066688da86c7b88e8c2aebbe99f3b49c1cc86f525d3ab4e47278d4be716",
          "blockNumber": "0x7432f4f",
          "transactionHash": "0x7df4049bf6df038a60b8332563a6601a6e361f5c523da53ac1be79d1f3b791cd",
          "transactionIndex": "0x1",
          "logIndex": "0x0",
          "removed": false
        }
      ],
      "logsBloom": "0x00000000000000000000000000000000000000000020000000000000000000000000000000000000000000000000000000200000000000000000000000000000000000080000000000000000000000000000000000000000000000000800000000000000001000000000000000000000000000000000000100000000000000000000000000000000000000000000000000000000000000000000000000000000000000000000000000000000000000000008000000040000000000000000000000000000000000000000000000000000000000000000000000000000000000000000001000000000000000000000000000000000000000000000000000000000",
      "type": "0x2",
      "transactionHash": "0x7df4049bf6df038a60b8332563a6601a6e361f5c523da53ac1be79d1f3b791cd",
      "transactionIndex": "0x1",
      "blockHash": "0x35b4a066688da86c7b88e8c2aebbe99f3b49c1cc86f525d3ab4e47278d4be716",
      "blockNumber": "0x7432f4f",
      "gasUsed": "0xba8b",
      "effectiveGasPrice": "0x5f5e100",
      "from": "0x0a52c4cd73157bcfdd4a7c570106016db2749b05",
      "to": "0xd32b0ccad5decfc9c7fafba89d918153202dbf4a",
      "contractAddress": null,
      "gasUsedForL1": "0x0",
      "l1BlockNumber": "0x74def5"
    },
    {
      "status": "0x1",
      "cumulativeGasUsed": "0xba8b",
      "logs": [
        {
          "address": "0xd32b0ccad5decfc9c7fafba89d918153202dbf4a",
          "topics": [
            "0x0d86730737b142fc160892fa8a0f2db687a92a0e294d1ad70624cf5acef03b84",
            "0x000000000000000000000000e7a42ef87a5b717b46940120a0e84e2399acff90"
          ],
          "data": "0x0000000000000000000000000000000000000000000000000de0b6b3a7640000",
          "blockHash": "0x187c6a1d7a8cbca6c5ffcd0d189b35fcd41b2537b20e1d96f81642f8be2899a2",
          "blockNumber": "0x7432f55",
          "transactionHash": "0x4edfad62a09026ea78b4ab895f18c8f8a4eab9a5912db6528464a0ae04a1314a",
          "transactionIndex": "0x1",
          "logIndex": "0x0",
          "removed": false
        }
      ],
      "logsBloom": "0x00000000000000000000000000000000000000000000000000000000000000000000000000000000000000000000000000200000000000000000000000000000000000080000000000000000000000000000000000000000000000000000000000000000001000000000000000000000080000000000000100000000000000000000000000000000000000000000000000000000000000000000000000080000000000000000000000000000000000000008000000000000000000000000000000000000000000000000000000000000000000000000000000000000080000000000001000000000000000000000000000000000000000000000000000000000",
      "type": "0x2",
      "transactionHash": "0x4edfad62a09026ea78b4ab895f18c8f8a4eab9a5912db6528464a0ae04a1314a",
      "transactionIndex": "0x1",
      "blockHash": "0x187c6a1d7a8cbca6c5ffcd0d189b35fcd41b2537b20e1d96f81642f8be2899a2",
      "blockNumber": "0x7432f55",
      "gasUsed": "0xba8b",
      "effectiveGasPrice": "0x5f5e100",
      "from": "0x0a52c4cd73157bcfdd4a7c570106016db2749b05",
      "to": "0xd32b0ccad5decfc9c7fafba89d918153202dbf4a",
      "contractAddress": null,
      "gasUsedForL1": "0x0",
      "l1BlockNumber": "0x74def5"
    },
    {
      "status": "0x1",
      "cumulativeGasUsed": "0xb512",
      "logs": [
        {
          "address": "0x612de751150638db0e8cc8ef53cd94005742fac2",
          "topics": [
            "0x8c5be1e5ebec7d5bd14f71427d1e84f3dd0314c0f7b2291e5b200ac8c7c3b925",
            "0x0000000000000000000000000a52c4cd73157bcfdd4a7c570106016db2749b05",
            "0x00000000000000000000000062ea3e856a006e09dff6dd70850f9c73f74dec79"
          ],
          "data": "0x0000000000000000000000000000000000000000000000003782dace9d900000",
          "blockHash": "0x4ac3e5d5af3fb1299db132cf461dcc3ffcf630369aa6d496cb38201ab8b443a7",
          "blockNumber": "0x7432f5b",
          "transactionHash": "0x368609691296f1005f757c2e34891cded5d1b77eb9768d03c5129e1099495714",
          "transactionIndex": "0x1",
          "logIndex": "0x0",
          "removed": false
        }
      ],
      "logsBloom": "0x00000000000000000000000000000000000000400000000000000000000000000000000100000000000000000000000000000000000000000000000020200000000000000000000000000000000000000000000000000000000004000000000000000000000000000000000000000000004000000000000000000000000000000000000000000000000000000000000000000000000000000000000000001000020000000000000000000000000000000000000000000000000000000000000000000000000000000000400000000000000000000000000000000000000000000010000000000000000000000000000000020000000000000000000001000000",
      "type": "0x2",
      "transactionHash": "0x368609691296f1005f757c2e34891cded5d1b77eb9768d03c5129e1099495714",
      "transactionIndex": "0x1",
      "blockHash": "0x4ac3e5d5af3fb1299db132cf461dcc3ffcf630369aa6d496cb38201ab8b443a7",
      "blockNumber": "0x7432f5b",
      "gasUsed": "0xb512",
      "effectiveGasPrice": "0x5f5e100",
      "from": "0x0a52c4cd73157bcfdd4a7c570106016db2749b05",
      "to": "0x612de751150638db0e8cc8ef53cd94005742fac2",
      "contractAddress": null,
      "gasUsedForL1": "0x0",
      "l1BlockNumber": "0x74def5"
    },
    {
      "status": "0x1",
      "cumulativeGasUsed": "0xb4ee",
      "logs": [
        {
          "address": "0x31b9dbb5a4d34c9e730d676bf254f0e1b5eb03fa",
          "topics": [
            "0x8c5be1e5ebec7d5bd14f71427d1e84f3dd0314c0f7b2291e5b200ac8c7c3b925",
            "0x0000000000000000000000000a52c4cd73157bcfdd4a7c570106016db2749b05",
            "0x00000000000000000000000062ea3e856a006e09dff6dd70850f9c73f74dec79"
          ],
          "data": "0x00000000000000000000000000000000000000000000000000000000001e8480",
          "blockHash": "0x895cf2b4153a09c94f70891fd1cecc9d1405e7f4eae84651ca716be9cd6049b7",
          "blockNumber": "0x7432f5f",
          "transactionHash": "0x3f7d4f47eec07b42aa660842c91e6dde256da5159de85afa9bbafb017c4f3249",
          "transactionIndex": "0x1",
          "logIndex": "0x0",
          "removed": false
        }
      ],
      "logsBloom": "0x00000000000000000000000000000000000000400000000000000000000000000000000000000000000000000000000000000000000000000000000020200000000000000000000000000000000000000000000000000000000004000000000000000000000000400000000000000000000000000000000000000000000000000000000000000000000000000000000000000000000000000000000000001000020000000000000000002000000000000000000000000000000000000000000000000000800000000000400000000000000000000000000000000000000000000010000000000000000000000000000000000000000000000000000001000000",
      "type": "0x2",
      "transactionHash": "0x3f7d4f47eec07b42aa660842c91e6dde256da5159de85afa9bbafb017c4f3249",
      "transactionIndex": "0x1",
      "blockHash": "0x895cf2b4153a09c94f70891fd1cecc9d1405e7f4eae84651ca716be9cd6049b7",
      "blockNumber": "0x7432f5f",
      "gasUsed": "0xb4ee",
      "effectiveGasPrice": "0x5f5e100",
      "from": "0x0a52c4cd73157bcfdd4a7c570106016db2749b05",
      "to": "0x31b9dbb5a4d34c9e730d676bf254f0e1b5eb03fa",
      "contractAddress": null,
      "gasUsedForL1": "0x0",
      "l1BlockNumber": "0x74def5"
    },
    {
      "status": "0x1",
      "cumulativeGasUsed": "0xb512",
      "logs": [
        {
          "address": "0x8e0d3ded296c324050eef42662c6a778a96dfe73",
          "topics": [
            "0x8c5be1e5ebec7d5bd14f71427d1e84f3dd0314c0f7b2291e5b200ac8c7c3b925",
            "0x0000000000000000000000000a52c4cd73157bcfdd4a7c570106016db2749b05",
            "0x00000000000000000000000062ea3e856a006e09dff6dd70850f9c73f74dec79"
          ],
          "data": "0x0000000000000000000000000000000000000000000000006f05b59d3b200000",
          "blockHash": "0x0de28e46bf98f7e43142ebc717f6ad33f754c2a0a201706d5bc804d36f028f8d",
          "blockNumber": "0x7432f63",
          "transactionHash": "0x069df09efda41fee6502b25e8be1002cc54b01f1de424d61e93c6e7f9cc0699a",
          "transactionIndex": "0x1",
          "logIndex": "0x0",
          "removed": false
        }
      ],
      "logsBloom": "0x00000000000000000000000000000000000000400000000000000000000000000000000000000000000000000000000000000000000000000000000020200000000000000000000000000000000000000000000000000000000004000000000000000000000000000000000000000000000000000000000000000000000000000000000000000000000000000000000000000000000000000000000000001000020000000000000000000000000000000000000000080000000000020000000000000000080000000000400000000000000000000000000000000000000000000010000000000000000000000000000000000000000000000000000001000000",
      "type": "0x2",
      "transactionHash": "0x069df09efda41fee6502b25e8be1002cc54b01f1de424d61e93c6e7f9cc0699a",
      "transactionIndex": "0x1",
      "blockHash": "0x0de28e46bf98f7e43142ebc717f6ad33f754c2a0a201706d5bc804d36f028f8d",
      "blockNumber": "0x7432f63",
      "gasUsed": "0xb512",
      "effectiveGasPrice": "0x5f5e100",
      "from": "0x0a52c4cd73157bcfdd4a7c570106016db2749b05",
      "to": "0x8e0d3ded296c324050eef42662c6a778a96dfe73",
      "contractAddress": null,
      "gasUsedForL1": "0x0",
      "l1BlockNumber": "0x74def5"
    },
    {
      "status": "0x1",
      "cumulativeGasUsed": "0x76154",
      "logs": [
        {
          "address": "0xe7a42ef87a5b717b46940120a0e84e2399acff90",
          "topics": [
            "0x8c5be1e5ebec7d5bd14f71427d1e84f3dd0314c0f7b2291e5b200ac8c7c3b925",
            "0x0000000000000000000000000a52c4cd73157bcfdd4a7c570106016db2749b05",
            "0x00000000000000000000000062ea3e856a006e09dff6dd70850f9c73f74dec79"
          ],
          "data": "0x00000000000000000000000000000000000000000000000000000000007a1200",
          "blockHash": "0x243e69287beb88d2265d8a842b28180c4c31487ad75c6f67333764c7af319b36",
          "blockNumber": "0x7432f69",
          "transactionHash": "0x92284c28ef0dc80b2db0ba48139f32195248525a93a692bccfb9f3510f804575",
          "transactionIndex": "0x5",
          "logIndex": "0x5",
          "removed": false
        }
      ],
      "logsBloom": "0x00000000000000000000000000000000000000400000000000000000100000000000000000000000000000000000000000000000000000000000000020200000000000000000000000000000000000000000000000000000000004000000000000000000000000000000000000000000000000000000000000040000000000000000000000000000000000000000000000000000000000000000000000001000020000000000000000000000000000000000000000000080000000000000000000000000000000000000400000000000000000000000000000000000000000000010000000000000000000000000000000000000000000000000000001000000",
      "type": "0x2",
      "transactionHash": "0x92284c28ef0dc80b2db0ba48139f32195248525a93a692bccfb9f3510f804575",
      "transactionIndex": "0x5",
      "blockHash": "0x243e69287beb88d2265d8a842b28180c4c31487ad75c6f67333764c7af319b36",
      "blockNumber": "0x7432f69",
      "gasUsed": "0xb4e2",
      "effectiveGasPrice": "0x5f5e100",
      "from": "0x0a52c4cd73157bcfdd4a7c570106016db2749b05",
      "to": "0xe7a42ef87a5b717b46940120a0e84e2399acff90",
      "contractAddress": null,
      "gasUsedForL1": "0x0",
      "l1BlockNumber": "0x74def5"
    },
    {
      "status": "0x1",
      "cumulativeGasUsed": "0xc8cf1",
      "logs": [
        {
          "address": "0x612de751150638db0e8cc8ef53cd94005742fac2",
          "topics": [
            "0xddf252ad1be2c89b69c2b068fc378daa952ba7f163c4a11628f55a4df523b3ef",
            "0x0000000000000000000000000a52c4cd73157bcfdd4a7c570106016db2749b05",
            "0x00000000000000000000000062ea3e856a006e09dff6dd70850f9c73f74dec79"
          ],
          "data": "0x0000000000000000000000000000000000000000000000001bc16d674ec80000",
          "blockHash": "0x72c56779a15eac5c9214de552f89470a9be51783099ca7f2a94ed652980be392",
          "blockNumber": "0x7432f6f",
          "transactionHash": "0x3737cbc01e89f5c9d08af80d042546414a19d34c28c5f6a5aa77f9d2fd78e1d2",
          "transactionIndex": "0x1",
          "logIndex": "0x0",
          "removed": false
        },
        {
          "address": "0x31b9dbb5a4d34c9e730d676bf254f0e1b5eb03fa",
          "topics": [
            "0xddf252ad1be2c89b69c2b068fc378daa952ba7f163c4a11628f55a4df523b3ef",
            "0x0000000000000000000000000a52c4cd73157bcfdd4a7c570106016db2749b05",
            "0x00000000000000000000000062ea3e856a006e09dff6dd70850f9c73f74dec79"
          ],
          "data": "0x00000000000000000000000000000000000000000000000000000000000f4240",
          "blockHash": "0x72c56779a15eac5c9214de552f89470a9be51783099ca7f2a94ed652980be392",
          "blockNumber": "0x7432f6f",
          "transactionHash": "0x3737cbc01e89f5c9d08af80d042546414a19d34c28c5f6a5aa77f9d2fd78e1d2",
          "transactionIndex": "0x1",
          "logIndex": "0x1",
          "removed": false
        },
        {
          "address": "0xd27522a27a3d0ee1823ecd239de7a64232f31d89",
          "topics": [
            "0x8be0079c531659141344cd1fd0a4f28419497f9722a3daafe3b4186f6b6457e0",
            "0x0000000000000000000000000000000000000000000000000000000000000000",
            "0x00000000000000000000000062ea3e856a006e09dff6dd70850f9c73f74dec79"
          ],
          "data": "0x",
          "blockHash": "0x72c56779a15eac5c9214de552f89470a9be51783099ca7f2a94ed652980be392",
          "blockNumber": "0x7432f6f",
          "transactionHash": "0x3737cbc01e89f5c9d08af80d042546414a19d34c28c5f6a5aa77f9d2fd78e1d2",
          "transactionIndex": "0x1",
          "logIndex": "0x2",
          "removed": false
        },
        {
          "address": "0xd27522a27a3d0ee1823ecd239de7a64232f31d89",
          "topics": [
            "0xddf252ad1be2c89b69c2b068fc378daa952ba7f163c4a11628f55a4df523b3ef",
            "0x0000000000000000000000000000000000000000000000000000000000000000",
            "0x0000000000000000000000000a52c4cd73157bcfdd4a7c570106016db2749b05"
          ],
          "data": "0x0000000000000000000000000000000000000000000000001bc16d674ed74240",
          "blockHash": "0x72c56779a15eac5c9214de552f89470a9be51783099ca7f2a94ed652980be392",
          "blockNumber": "0x7432f6f",
          "transactionHash": "0x3737cbc01e89f5c9d08af80d042546414a19d34c28c5f6a5aa77f9d2fd78e1d2",
          "transactionIndex": "0x1",
          "logIndex": "0x3",
          "removed": false
        },
        {
          "address": "0x62ea3e856a006e09dff6dd70850f9c73f74dec79",
          "topics": [
            "0x43c967b388d3a4ccad3f7ab80167852e322e5a3fde9893f530252281b2ae8b70",
            "0x0000000000000000000000000a52c4cd73157bcfdd4a7c570106016db2749b05"
          ],
          "data": "0x000000000000000000000000612de751150638db0e8cc8ef53cd94005742fac200000000000000000000000031b9dbb5a4d34c9e730d676bf254f0e1b5eb03fa0000000000000000000000000000000000000000000000001bc16d674ec8000000000000000000000000000000000000000000000000000000000000000f42400000000000000000000000000000000000000000000000001bc16d674ed74240",
          "blockHash": "0x72c56779a15eac5c9214de552f89470a9be51783099ca7f2a94ed652980be392",
          "blockNumber": "0x7432f6f",
          "transactionHash": "0x3737cbc01e89f5c9d08af80d042546414a19d34c28c5f6a5aa77f9d2fd78e1d2",
          "transactionIndex": "0x1",
          "logIndex": "0x4",
          "removed": false
        }
      ],
      "logsBloom": "0x00000000000000000000000000000000000002400000000000800000000000000000000100000000000000000400000420000000000000000000000020000000000000000000001000000008000000000001000000000000000004000000000000000000020000400000000000000800004800000000000000000010000000400000000000000000000000000000000000000000000000000000200000001000000000000000000000002000000000008000000000000000000000000000000000000002800000000000400000000000000000000000000000000000000020000000020000000000000000000000000000020000000000000000000001000000",
      "type": "0x2",
      "transactionHash": "0x3737cbc01e89f5c9d08af80d042546414a19d34c28c5f6a5aa77f9d2fd78e1d2",
      "transactionIndex": "0x1",
      "blockHash": "0x72c56779a15eac5c9214de552f89470a9be51783099ca7f2a94ed652980be392",
      "blockNumber": "0x7432f6f",
      "gasUsed": "0xc8cf1",
      "effectiveGasPrice": "0x5f5e100",
      "from": "0x0a52c4cd73157bcfdd4a7c570106016db2749b05",
      "to": "0x62ea3e856a006e09dff6dd70850f9c73f74dec79",
      "contractAddress": null,
      "gasUsedForL1": "0x0",
      "l1BlockNumber": "0x74def5"
    },
    {
      "status": "0x1",
      "cumulativeGasUsed": "0xc8ce7",
      "logs": [
        {
          "address": "0x8e0d3ded296c324050eef42662c6a778a96dfe73",
          "topics": [
            "0xddf252ad1be2c89b69c2b068fc378daa952ba7f163c4a11628f55a4df523b3ef",
            "0x0000000000000000000000000a52c4cd73157bcfdd4a7c570106016db2749b05",
            "0x00000000000000000000000062ea3e856a006e09dff6dd70850f9c73f74dec79"
          ],
          "data": "0x0000000000000000000000000000000000000000000000003782dace9d900000",
          "blockHash": "0x280ff7f22b0989657a0d7949919ca922072b00c6445450d4939980e3857e693b",
          "blockNumber": "0x7432f75",
          "transactionHash": "0x07fe62888fc034dce1469168da4510765c527b2f62da7c57449b94c704e915e6",
          "transactionIndex": "0x1",
          "logIndex": "0x0",
          "removed": false
        },
        {
          "address": "0xe7a42ef87a5b717b46940120a0e84e2399acff90",
          "topics": [
            "0xddf252ad1be2c89b69c2b068fc378daa952ba7f163c4a11628f55a4df523b3ef",
            "0x0000000000000000000000000a52c4cd73157bcfdd4a7c570106016db2749b05",
            "0x00000000000000000000000062ea3e856a006e09dff6dd70850f9c73f74dec79"
          ],
          "data": "0x00000000000000000000000000000000000000000000000000000000003d0900",
          "blockHash": "0x280ff7f22b0989657a0d7949919ca922072b00c6445450d4939980e3857e693b",
          "blockNumber": "0x7432f75",
          "transactionHash": "0x07fe62888fc034dce1469168da4510765c527b2f62da7c57449b94c704e915e6",
          "transactionIndex": "0x1",
          "logIndex": "0x1",
          "removed": false
        },
        {
          "address": "0x7ec22f911b86596cd7ed4dde66c6a671352fc478",
          "topics": [
            "0x8be0079c531659141344cd1fd0a4f28419497f9722a3daafe3b4186f6b6457e0",
            "0x0000000000000000000000000000000000000000000000000000000000000000",
            "0x00000000000000000000000062ea3e856a006e09dff6dd70850f9c73f74dec79"
          ],
          "data": "0x",
          "blockHash": "0x280ff7f22b0989657a0d7949919ca922072b00c6445450d4939980e3857e693b",
          "blockNumber": "0x7432f75",
          "transactionHash": "0x07fe62888fc034dce1469168da4510765c527b2f62da7c57449b94c704e915e6",
          "transactionIndex": "0x1",
          "logIndex": "0x2",
          "removed": false
        },
        {
          "address": "0x7ec22f911b86596cd7ed4dde66c6a671352fc478",
          "topics": [
            "0xddf252ad1be2c89b69c2b068fc378daa952ba7f163c4a11628f55a4df523b3ef",
            "0x0000000000000000000000000000000000000000000000000000000000000000",
            "0x0000000000000000000000000a52c4cd73157bcfdd4a7c570106016db2749b05"
          ],
          "data": "0x0000000000000000000000000000000000000000000000003782dace9dcd0900",
          "blockHash": "0x280ff7f22b0989657a0d7949919ca922072b00c6445450d4939980e3857e693b",
          "blockNumber": "0x7432f75",
          "transactionHash": "0x07fe62888fc034dce1469168da4510765c527b2f62da7c57449b94c704e915e6",
          "transactionIndex": "0x1",
          "logIndex": "0x3",
          "removed": false
        },
        {
          "address": "0x62ea3e856a006e09dff6dd70850f9c73f74dec79",
          "topics": [
            "0x43c967b388d3a4ccad3f7ab80167852e322e5a3fde9893f530252281b2ae8b70",
            "0x0000000000000000000000000a52c4cd73157bcfdd4a7c570106016db2749b05"
          ],
          "data": "0x0000000000000000000000008e0d3ded296c324050eef42662c6a778a96dfe73000000000000000000000000e7a42ef87a5b717b46940120a0e84e2399acff900000000000000000000000000000000000000000000000003782dace9d90000000000000000000000000000000000000000000000000000000000000003d09000000000000000000000000000000000000000000000000003782dace9dcd0900",
          "blockHash": "0x280ff7f22b0989657a0d7949919ca922072b00c6445450d4939980e3857e693b",
          "blockNumber": "0x7432f75",
          "transactionHash": "0x07fe62888fc034dce1469168da4510765c527b2f62da7c57449b94c704e915e6",
          "transactionIndex": "0x1",
          "logIndex": "0x4",
          "removed": false
        }
      ],
      "logsBloom": "0x00000000000000000000000000000000000002400000000000800000100000010000000004000000000000000400000400000000000000000000000020000000000000000000001000000008000000000001000000000000000004000000000000000000020000000000000000000800000000000000000000040010000000400000000000000000000000000000000000000000000000000000000000001000000000000000000000000000000000008000000000080080000000020000000000000002080000000001400000000000000000000000000000000000000020000000020000000000000000000000000000000000000000000000000001000000",
      "type": "0x2",
      "transactionHash": "0x07fe62888fc034dce1469168da4510765c527b2f62da7c57449b94c704e915e6",
      "transactionIndex": "0x1",
      "blockHash": "0x280ff7f22b0989657a0d7949919ca922072b00c6445450d4939980e3857e693b",
      "blockNumber": "0x7432f75",
      "gasUsed": "0xc8ce7",
      "effectiveGasPrice": "0x5f5e100",
      "from": "0x0a52c4cd73157bcfdd4a7c570106016db2749b05",
      "to": "0x62ea3e856a006e09dff6dd70850f9c73f74dec79",
      "contractAddress": null,
      "gasUsedForL1": "0x0",
      "l1BlockNumber": "0x74def5"
    },
    {
      "status": "0x1",
      "cumulativeGasUsed": "0xcc165",
      "logs": [
        {
          "address": "0x612de751150638db0e8cc8ef53cd94005742fac2",
          "topics": [
            "0xddf252ad1be2c89b69c2b068fc378daa952ba7f163c4a11628f55a4df523b3ef",
            "0x0000000000000000000000000a52c4cd73157bcfdd4a7c570106016db2749b05",
            "0x00000000000000000000000062ea3e856a006e09dff6dd70850f9c73f74dec79"
          ],
          "data": "0x0000000000000000000000000000000000000000000000001bc16d674ec80000",
          "blockHash": "0x0f0de73de9bbe8d514a5fea2f8377f1b838c4c422dd75fe6ab74d83d345dd1ca",
          "blockNumber": "0x7432f7b",
          "transactionHash": "0x6602c8d3b7ee5d2a6dcb177b05702269eaa00e9c7866802d693ade2901f11cb3",
          "transactionIndex": "0x2",
          "logIndex": "0x1",
          "removed": false
        },
        {
          "address": "0xe7a42ef87a5b717b46940120a0e84e2399acff90",
          "topics": [
            "0xddf252ad1be2c89b69c2b068fc378daa952ba7f163c4a11628f55a4df523b3ef",
            "0x0000000000000000000000000a52c4cd73157bcfdd4a7c570106016db2749b05",
            "0x00000000000000000000000062ea3e856a006e09dff6dd70850f9c73f74dec79"
          ],
          "data": "0x00000000000000000000000000000000000000000000000000000000003d0900",
          "blockHash": "0x0f0de73de9bbe8d514a5fea2f8377f1b838c4c422dd75fe6ab74d83d345dd1ca",
          "blockNumber": "0x7432f7b",
          "transactionHash": "0x6602c8d3b7ee5d2a6dcb177b05702269eaa00e9c7866802d693ade2901f11cb3",
          "transactionIndex": "0x2",
          "logIndex": "0x2",
          "removed": false
        },
        {
          "address": "0x626bcafdb4fcec94d00de6729e08ef729242764a",
          "topics": [
            "0x8be0079c531659141344cd1fd0a4f28419497f9722a3daafe3b4186f6b6457e0",
            "0x0000000000000000000000000000000000000000000000000000000000000000",
            "0x00000000000000000000000062ea3e856a006e09dff6dd70850f9c73f74dec79"
          ],
          "data": "0x",
          "blockHash": "0x0f0de73de9bbe8d514a5fea2f8377f1b838c4c422dd75fe6ab74d83d345dd1ca",
          "blockNumber": "0x7432f7b",
          "transactionHash": "0x6602c8d3b7ee5d2a6dcb177b05702269eaa00e9c7866802d693ade2901f11cb3",
          "transactionIndex": "0x2",
          "logIndex": "0x3",
          "removed": false
        },
        {
          "address": "0x626bcafdb4fcec94d00de6729e08ef729242764a",
          "topics": [
            "0xddf252ad1be2c89b69c2b068fc378daa952ba7f163c4a11628f55a4df523b3ef",
            "0x0000000000000000000000000000000000000000000000000000000000000000",
            "0x0000000000000000000000000a52c4cd73157bcfdd4a7c570106016db2749b05"
          ],
          "data": "0x0000000000000000000000000000000000000000000000001bc16d674f050900",
          "blockHash": "0x0f0de73de9bbe8d514a5fea2f8377f1b838c4c422dd75fe6ab74d83d345dd1ca",
          "blockNumber": "0x7432f7b",
          "transactionHash": "0x6602c8d3b7ee5d2a6dcb177b05702269eaa00e9c7866802d693ade2901f11cb3",
          "transactionIndex": "0x2",
          "logIndex": "0x4",
          "removed": false
        },
        {
          "address": "0x62ea3e856a006e09dff6dd70850f9c73f74dec79",
          "topics": [
            "0x43c967b388d3a4ccad3f7ab80167852e322e5a3fde9893f530252281b2ae8b70",
            "0x0000000000000000000000000a52c4cd73157bcfdd4a7c570106016db2749b05"
          ],
          "data": "0x000000000000000000000000612de751150638db0e8cc8ef53cd94005742fac2000000000000000000000000e7a42ef87a5b717b46940120a0e84e2399acff900000000000000000000000000000000000000000000000001bc16d674ec8000000000000000000000000000000000000000000000000000000000000003d09000000000000000000000000000000000000000000000000001bc16d674f050900",
          "blockHash": "0x0f0de73de9bbe8d514a5fea2f8377f1b838c4c422dd75fe6ab74d83d345dd1ca",
          "blockNumber": "0x7432f7b",
          "transactionHash": "0x6602c8d3b7ee5d2a6dcb177b05702269eaa00e9c7866802d693ade2901f11cb3",
          "transactionIndex": "0x2",
          "logIndex": "0x5",
          "removed": false
        }
      ],
      "logsBloom": "0x00000000000000000000000000000000000002400000000040800000100000000000000100000000000000000400000400000000000000000000000020000000000000000000001000000008000000000001000000000000000004000000000008000000020000000000000000000800004000000000000000040010000000400000000000000000000000000000000000000000000000000000000000001000000000000000000000000000000000008000000000000080000000000000000000000002000000000000400000000000000000000000000000000000000020000000020000000000000000000000000000020000000000000000000001000000",
      "type": "0x2",
      "transactionHash": "0x6602c8d3b7ee5d2a6dcb177b05702269eaa00e9c7866802d693ade2901f11cb3",
      "transactionIndex": "0x2",
      "blockHash": "0x0f0de73de9bbe8d514a5fea2f8377f1b838c4c422dd75fe6ab74d83d345dd1ca",
      "blockNumber": "0x7432f7b",
      "gasUsed": "0xbe1c3",
      "effectiveGasPrice": "0x5f5e100",
      "from": "0x0a52c4cd73157bcfdd4a7c570106016db2749b05",
      "to": "0x62ea3e856a006e09dff6dd70850f9c73f74dec79",
      "contractAddress": null,
      "gasUsedForL1": "0x0",
      "l1BlockNumber": "0x74def5"
    },
    {
      "status": "0x1",
      "cumulativeGasUsed": "0xbe1db",
      "logs": [
        {
          "address": "0x31b9dbb5a4d34c9e730d676bf254f0e1b5eb03fa",
          "topics": [
            "0xddf252ad1be2c89b69c2b068fc378daa952ba7f163c4a11628f55a4df523b3ef",
            "0x0000000000000000000000000a52c4cd73157bcfdd4a7c570106016db2749b05",
            "0x00000000000000000000000062ea3e856a006e09dff6dd70850f9c73f74dec79"
          ],
          "data": "0x00000000000000000000000000000000000000000000000000000000000f4240",
          "blockHash": "0x912631f797ab02dfc5aa1bc611f7f3af816b5b3277d2daadce62218de1b6ad29",
          "blockNumber": "0x7432f80",
          "transactionHash": "0x711b38c7e5b81ef9fdc903fdcd53cacb7cb8a833ed5a22ed81acb30b5ec426c9",
          "transactionIndex": "0x1",
          "logIndex": "0x0",
          "removed": false
        },
        {
          "address": "0x8e0d3ded296c324050eef42662c6a778a96dfe73",
          "topics": [
            "0xddf252ad1be2c89b69c2b068fc378daa952ba7f163c4a11628f55a4df523b3ef",
            "0x0000000000000000000000000a52c4cd73157bcfdd4a7c570106016db2749b05",
            "0x00000000000000000000000062ea3e856a006e09dff6dd70850f9c73f74dec79"
          ],
          "data": "0x0000000000000000000000000000000000000000000000003782dace9d900000",
          "blockHash": "0x912631f797ab02dfc5aa1bc611f7f3af816b5b3277d2daadce62218de1b6ad29",
          "blockNumber": "0x7432f80",
          "transactionHash": "0x711b38c7e5b81ef9fdc903fdcd53cacb7cb8a833ed5a22ed81acb30b5ec426c9",
          "transactionIndex": "0x1",
          "logIndex": "0x1",
          "removed": false
        },
        {
          "address": "0x50e5308b04f1bbce6001b8a44eb88a85cb7f3978",
          "topics": [
            "0x8be0079c531659141344cd1fd0a4f28419497f9722a3daafe3b4186f6b6457e0",
            "0x0000000000000000000000000000000000000000000000000000000000000000",
            "0x00000000000000000000000062ea3e856a006e09dff6dd70850f9c73f74dec79"
          ],
          "data": "0x",
          "blockHash": "0x912631f797ab02dfc5aa1bc611f7f3af816b5b3277d2daadce62218de1b6ad29",
          "blockNumber": "0x7432f80",
          "transactionHash": "0x711b38c7e5b81ef9fdc903fdcd53cacb7cb8a833ed5a22ed81acb30b5ec426c9",
          "transactionIndex": "0x1",
          "logIndex": "0x2",
          "removed": false
        },
        {
          "address": "0x50e5308b04f1bbce6001b8a44eb88a85cb7f3978",
          "topics": [
            "0xddf252ad1be2c89b69c2b068fc378daa952ba7f163c4a11628f55a4df523b3ef",
            "0x0000000000000000000000000000000000000000000000000000000000000000",
            "0x0000000000000000000000000a52c4cd73157bcfdd4a7c570106016db2749b05"
          ],
          "data": "0x0000000000000000000000000000000000000000000000003782dace9d9f4240",
          "blockHash": "0x912631f797ab02dfc5aa1bc611f7f3af816b5b3277d2daadce62218de1b6ad29",
          "blockNumber": "0x7432f80",
          "transactionHash": "0x711b38c7e5b81ef9fdc903fdcd53cacb7cb8a833ed5a22ed81acb30b5ec426c9",
          "transactionIndex": "0x1",
          "logIndex": "0x3",
          "removed": false
        },
        {
          "address": "0x62ea3e856a006e09dff6dd70850f9c73f74dec79",
          "topics": [
            "0x43c967b388d3a4ccad3f7ab80167852e322e5a3fde9893f530252281b2ae8b70",
            "0x0000000000000000000000000a52c4cd73157bcfdd4a7c570106016db2749b05"
          ],
          "data": "0x00000000000000000000000031b9dbb5a4d34c9e730d676bf254f0e1b5eb03fa0000000000000000000000008e0d3ded296c324050eef42662c6a778a96dfe7300000000000000000000000000000000000000000000000000000000000f42400000000000000000000000000000000000000000000000003782dace9d9000000000000000000000000000000000000000000000000000003782dace9d9f4240",
          "blockHash": "0x912631f797ab02dfc5aa1bc611f7f3af816b5b3277d2daadce62218de1b6ad29",
          "blockNumber": "0x7432f80",
          "transactionHash": "0x711b38c7e5b81ef9fdc903fdcd53cacb7cb8a833ed5a22ed81acb30b5ec426c9",
          "transactionIndex": "0x1",
          "logIndex": "0x4",
          "removed": false
        }
      ],
      "logsBloom": "0x00000000000000000000002040000000000002400000000000800000000000000000000000000000000000000400000400000000000000200000000020000000000000000000001000000008000000000001000000000000000004000000000000000000020000400000000000000800000000000000000000000010000000400000000000000000000000000000000000000000000000000000000000001000000000000000000000002000000000008000000000080000000000020000000000000002880000000000400000000000000000000000000000000000000020000000020000000000000000000000000000000000000000000000000001000000",
      "type": "0x2",
      "transactionHash": "0x711b38c7e5b81ef9fdc903fdcd53cacb7cb8a833ed5a22ed81acb30b5ec426c9",
      "transactionIndex": "0x1",
      "blockHash": "0x912631f797ab02dfc5aa1bc611f7f3af816b5b3277d2daadce62218de1b6ad29",
      "blockNumber": "0x7432f80",
      "gasUsed": "0xbe1db",
      "effectiveGasPrice": "0x5f5e100",
      "from": "0x0a52c4cd73157bcfdd4a7c570106016db2749b05",
      "to": "0x62ea3e856a006e09dff6dd70850f9c73f74dec79",
      "contractAddress": null,
      "gasUsedForL1": "0x0",
      "l1BlockNumber": "0x74def5"
    }
  ],
  "libraries": [],
  "pending": [],
  "returns": {},
  "timestamp": 1738941757,
  "chain": 421614,
  "commit": "fb81436"
}